{
  "abi": [
    {
      "inputs": [
        {
          "internalType": "address",
          "name": "_GNXToken",
          "type": "address"
        },
        {
          "internalType": "address",
          "name": "_GNXNative",
          "type": "address"
        }
      ],
      "stateMutability": "nonpayable",
      "type": "constructor"
    },
    {
      "anonymous": false,
      "inputs": [
        {
          "indexed": true,
          "internalType": "address",
          "name": "owner",
          "type": "address"
        },
        {
          "indexed": true,
          "internalType": "address",
          "name": "spender",
          "type": "address"
        },
        {
          "indexed": false,
          "internalType": "uint256",
          "name": "value",
          "type": "uint256"
        }
      ],
      "name": "Approval",
      "type": "event"
    },
    {
      "anonymous": false,
      "inputs": [
        {
          "indexed": true,
          "internalType": "address",
          "name": "trader",
          "type": "address"
        },
        {
          "indexed": false,
          "internalType": "address",
          "name": "output",
          "type": "address"
        },
        {
          "indexed": false,
          "internalType": "uint256",
          "name": "inputAmount",
          "type": "uint256"
        },
        {
          "indexed": false,
          "internalType": "uint256",
          "name": "outputAmount",
          "type": "uint256"
        }
      ],
      "name": "Trade",
      "type": "event"
    },
    {
      "anonymous": false,
      "inputs": [
        {
          "indexed": true,
          "internalType": "address",
          "name": "from",
          "type": "address"
        },
        {
          "indexed": true,
          "internalType": "address",
          "name": "to",
          "type": "address"
        },
        {
          "indexed": false,
          "internalType": "uint256",
          "name": "value",
          "type": "uint256"
        }
      ],
      "name": "Transfer",
      "type": "event"
    },
    {
      "anonymous": false,
      "inputs": [
        {
          "indexed": true,
          "internalType": "address",
          "name": "from",
          "type": "address"
        },
        {
          "indexed": true,
          "internalType": "address",
          "name": "to",
          "type": "address"
        },
        {
          "indexed": false,
          "internalType": "uint256",
          "name": "amount",
          "type": "uint256"
        }
      ],
      "name": "liquidityChange",
      "type": "event"
    },
    {
      "inputs": [
        {
          "internalType": "uint256",
          "name": "minTokens",
          "type": "uint256"
        },
        {
          "internalType": "uint256",
          "name": "nativeSold",
          "type": "uint256"
        },
        {
          "internalType": "address",
          "name": "recipient",
          "type": "address"
        }
      ],
      "name": "_tokenSwap",
      "outputs": [],
      "stateMutability": "nonpayable",
      "type": "function"
    },
    {
      "inputs": [
        {
          "internalType": "uint256",
          "name": "tokenDeposit",
          "type": "uint256"
        },
        {
          "internalType": "uint256",
          "name": "nativeDeposit",
          "type": "uint256"
        }
      ],
      "name": "addLiquidity",
      "outputs": [
        {
          "internalType": "uint256",
          "name": "",
          "type": "uint256"
        }
      ],
      "stateMutability": "nonpayable",
      "type": "function"
    },
    {
      "inputs": [
        {
          "internalType": "address",
          "name": "owner",
          "type": "address"
        },
        {
          "internalType": "address",
          "name": "spender",
          "type": "address"
        }
      ],
      "name": "allowance",
      "outputs": [
        {
          "internalType": "uint256",
          "name": "",
          "type": "uint256"
        }
      ],
      "stateMutability": "view",
      "type": "function"
    },
    {
      "inputs": [
        {
          "internalType": "address",
          "name": "spender",
          "type": "address"
        },
        {
          "internalType": "uint256",
          "name": "amount",
          "type": "uint256"
        }
      ],
      "name": "approve",
      "outputs": [
        {
          "internalType": "bool",
          "name": "",
          "type": "bool"
        }
      ],
      "stateMutability": "nonpayable",
      "type": "function"
    },
    {
      "inputs": [
        {
          "internalType": "address",
          "name": "account",
          "type": "address"
        }
      ],
      "name": "balanceOf",
      "outputs": [
        {
          "internalType": "uint256",
          "name": "",
          "type": "uint256"
        }
      ],
      "stateMutability": "view",
      "type": "function"
    },
    {
      "inputs": [
        {
          "internalType": "uint256",
          "name": "minNative",
          "type": "uint256"
        },
        {
          "internalType": "uint256",
          "name": "tokensSold",
          "type": "uint256"
        }
      ],
      "name": "buyNative",
      "outputs": [
        {
          "internalType": "uint256",
          "name": "",
          "type": "uint256"
        }
      ],
      "stateMutability": "nonpayable",
      "type": "function"
    },
    {
      "inputs": [
        {
          "internalType": "uint256",
          "name": "minTokens",
          "type": "uint256"
        },
        {
          "internalType": "uint256",
          "name": "nativeSold",
          "type": "uint256"
        }
      ],
      "name": "buyTokens",
      "outputs": [
        {
          "internalType": "uint256",
          "name": "",
          "type": "uint256"
        }
      ],
      "stateMutability": "nonpayable",
      "type": "function"
    },
    {
      "inputs": [],
      "name": "decimals",
      "outputs": [
        {
          "internalType": "uint8",
          "name": "",
          "type": "uint8"
        }
      ],
      "stateMutability": "view",
      "type": "function"
    },
    {
      "inputs": [
        {
          "internalType": "address",
          "name": "spender",
          "type": "address"
        },
        {
          "internalType": "uint256",
          "name": "subtractedValue",
          "type": "uint256"
        }
      ],
      "name": "decreaseAllowance",
      "outputs": [
        {
          "internalType": "bool",
          "name": "",
          "type": "bool"
        }
      ],
      "stateMutability": "nonpayable",
      "type": "function"
    },
    {
      "inputs": [],
      "name": "factory",
      "outputs": [
        {
          "internalType": "address",
          "name": "",
          "type": "address"
        }
      ],
      "stateMutability": "view",
      "type": "function"
    },
    {
      "inputs": [
        {
          "internalType": "address",
          "name": "spender",
          "type": "address"
        },
        {
          "internalType": "uint256",
          "name": "addedValue",
          "type": "uint256"
        }
      ],
      "name": "increaseAllowance",
      "outputs": [
        {
          "internalType": "bool",
          "name": "",
          "type": "bool"
        }
      ],
      "stateMutability": "nonpayable",
      "type": "function"
    },
    {
      "inputs": [],
      "name": "name",
      "outputs": [
        {
          "internalType": "string",
          "name": "",
          "type": "string"
        }
      ],
      "stateMutability": "view",
      "type": "function"
    },
    {
      "inputs": [],
      "name": "native",
      "outputs": [
        {
          "internalType": "contract GNXNative",
          "name": "",
          "type": "address"
        }
      ],
      "stateMutability": "view",
      "type": "function"
    },
    {
      "inputs": [],
      "name": "nativeReserve",
      "outputs": [
        {
          "internalType": "uint256",
          "name": "",
          "type": "uint256"
        }
      ],
      "stateMutability": "view",
      "type": "function"
    },
    {
      "inputs": [
        {
          "internalType": "uint256",
          "name": "nativeSold",
          "type": "uint256"
        }
      ],
      "name": "nativeToToken",
      "outputs": [
        {
          "internalType": "uint256",
          "name": "",
          "type": "uint256"
        }
      ],
      "stateMutability": "view",
      "type": "function"
    },
    {
      "inputs": [
        {
          "internalType": "uint256",
          "name": "amount",
          "type": "uint256"
        }
      ],
      "name": "removeLiquidity",
      "outputs": [
        {
          "internalType": "uint256",
          "name": "",
          "type": "uint256"
        },
        {
          "internalType": "uint256",
          "name": "",
          "type": "uint256"
        }
      ],
      "stateMutability": "nonpayable",
      "type": "function"
    },
    {
      "inputs": [],
      "name": "symbol",
      "outputs": [
        {
          "internalType": "string",
          "name": "",
          "type": "string"
        }
      ],
      "stateMutability": "view",
      "type": "function"
    },
    {
      "inputs": [],
      "name": "token",
      "outputs": [
        {
          "internalType": "contract GNXToken",
          "name": "",
          "type": "address"
        }
      ],
      "stateMutability": "view",
      "type": "function"
    },
    {
      "inputs": [],
      "name": "tokenReserve",
      "outputs": [
        {
          "internalType": "uint256",
          "name": "",
          "type": "uint256"
        }
      ],
      "stateMutability": "view",
      "type": "function"
    },
    {
      "inputs": [
        {
          "internalType": "uint256",
          "name": "tokensSold",
          "type": "uint256"
        },
        {
          "internalType": "uint256",
          "name": "minTokens",
          "type": "uint256"
        },
        {
          "internalType": "address",
          "name": "GNXTokenAddress",
          "type": "address"
        }
      ],
      "name": "tokenSwap",
      "outputs": [],
      "stateMutability": "nonpayable",
      "type": "function"
    },
    {
      "inputs": [
        {
          "internalType": "uint256",
          "name": "tokensSold",
          "type": "uint256"
        }
      ],
      "name": "tokenToNative",
      "outputs": [
        {
          "internalType": "uint256",
          "name": "",
          "type": "uint256"
        }
      ],
      "stateMutability": "view",
      "type": "function"
    },
    {
      "inputs": [],
      "name": "totalSupply",
      "outputs": [
        {
          "internalType": "uint256",
          "name": "",
          "type": "uint256"
        }
      ],
      "stateMutability": "view",
      "type": "function"
    },
    {
      "inputs": [
        {
          "internalType": "address",
          "name": "recipient",
          "type": "address"
        },
        {
          "internalType": "uint256",
          "name": "amount",
          "type": "uint256"
        }
      ],
      "name": "transfer",
      "outputs": [
        {
          "internalType": "bool",
          "name": "",
          "type": "bool"
        }
      ],
      "stateMutability": "nonpayable",
      "type": "function"
    },
    {
      "inputs": [
        {
          "internalType": "address",
          "name": "sender",
          "type": "address"
        },
        {
          "internalType": "address",
          "name": "recipient",
          "type": "address"
        },
        {
          "internalType": "uint256",
          "name": "amount",
          "type": "uint256"
        }
      ],
      "name": "transferFrom",
      "outputs": [
        {
          "internalType": "bool",
          "name": "",
          "type": "bool"
        }
      ],
      "stateMutability": "nonpayable",
      "type": "function"
    }
  ],
  "bytecode": "60806040523480156200001157600080fd5b5060405162001eb238038062001eb28339810160408190526200003491620001fa565b604080518082018252600881526747454e45582d563160c01b602080830191825283518085019094526005845264474e58563160d81b908401528151919291620000819160039162000137565b5080516200009790600490602084019062000137565b5050506001600160a01b038216620000f55760405162461bcd60e51b815260206004820152601a60248201527f474e583a20696e76616c696420746f6b656e2061646472657373000000000000604482015260640160405180910390fd5b600580546001600160a01b039384166001600160a01b03199182161790915560068054929093169181169190911790915560078054909116331790556200026f565b828054620001459062000232565b90600052602060002090601f016020900481019282620001695760008555620001b4565b82601f106200018457805160ff1916838001178555620001b4565b82800160010185558215620001b4579182015b82811115620001b457825182559160200191906001019062000197565b50620001c2929150620001c6565b5090565b5b80821115620001c25760008155600101620001c7565b80516001600160a01b0381168114620001f557600080fd5b919050565b600080604083850312156200020e57600080fd5b6200021983620001dd565b91506200022960208401620001dd565b90509250929050565b600181811c908216806200024757607f821691505b602082108114156200026957634e487b7160e01b600052602260045260246000fd5b50919050565b611c33806200027f6000396000f3fe608060405234801561001057600080fd5b50600436106101585760003560e01c8063926a14f3116100c3578063a9059cbb1161007c578063a9059cbb146102f8578063af5491141461030b578063c45a01551461031e578063cbcb317114610331578063dd62ed3e14610339578063fc0c546a1461037257600080fd5b8063926a14f31461027a57806395d89b411461028f5780639ab714db146102975780639c8f9f23146102aa5780639cd441da146102d2578063a457c2d7146102e557600080fd5b806323b872dd1161011557806323b872dd146101f6578063313ce56714610209578063318401c214610218578063395093511461022b57806370a082311461023e5780637975ce281461026757600080fd5b8063048bd60e1461015d57806306fdde0314610178578063095ea7b31461018d57806311b0b42d146101b057806317dbf18c146101db57806318160ddd146101ee575b600080fd5b610165610385565b6040519081526020015b60405180910390f35b6101806103f8565b60405161016f9190611915565b6101a061019b366004611982565b61048a565b604051901515815260200161016f565b6006546101c3906001600160a01b031681565b6040516001600160a01b03909116815260200161016f565b6101656101e93660046119ae565b6104a1565b600254610165565b6101a06102043660046119c7565b61051b565b6040516012815260200161016f565b610165610226366004611a08565b6105c5565b6101a0610239366004611982565b610839565b61016561024c366004611a2a565b6001600160a01b031660009081526020819052604090205490565b610165610275366004611a08565b610875565b61028d610288366004611a4e565b610941565b005b610180610952565b61028d6102a5366004611a4e565b610961565b6102bd6102b83660046119ae565b610b41565b6040805192835260208301919091520161016f565b6101656102e0366004611a08565b610d15565b6101a06102f3366004611982565b611052565b6101a0610306366004611982565b6110eb565b6101656103193660046119ae565b6110f8565b6007546101c3906001600160a01b031681565b610165611164565b610165610347366004611a87565b6001600160a01b03918216600090815260016020908152604080832093909416825291909152205490565b6005546101c3906001600160a01b031681565b6006546040516370a0823160e01b81523060048201526000916001600160a01b0316906370a08231906024015b602060405180830381865afa1580156103cf573d6000803e3d6000fd5b505050506040513d601f19601f820116820180604052508101906103f39190611ac0565b905090565b60606003805461040790611ad9565b80601f016020809104026020016040519081016040528092919081815260200182805461043390611ad9565b80156104805780601f1061045557610100808354040283529160200191610480565b820191906000526020600020905b81548152906001019060200180831161046357829003601f168201915b5050505050905090565b6000610497338484611195565b5060015b92915050565b60008082116104f05760405162461bcd60e51b8152602060048201526016602482015275474e583a20746f6f2066657720474e584e617469766560501b60448201526064015b60405180910390fd5b60006104fa611164565b90506000610506610385565b90506105138482846112ba565b949350505050565b600061052884848461135d565b6001600160a01b0384166000908152600160209081526040808320338452909152902054828110156105ad5760405162461bcd60e51b815260206004820152602860248201527f45524332303a207472616e7366657220616d6f756e74206578636565647320616044820152676c6c6f77616e636560c01b60648201526084016104e7565b6105ba8533858403611195565b506001949350505050565b6005546040516370a0823160e01b815233600482015260009183916001600160a01b03909116906370a0823190602401602060405180830381865afa158015610612573d6000803e3d6000fd5b505050506040513d601f19601f820116820180604052508101906106369190611ac0565b10156106845760405162461bcd60e51b815260206004820152601960248201527f474e583a206e6f7420656e6f75676820474e58546f6b656e730000000000000060448201526064016104e7565b600061068e611164565b9050600061069a610385565b905060006106a98584846112ba565b90508581116106f35760405162461bcd60e51b815260206004820152601660248201527511d3960e881b5a5b93985d1a5d99481b9bdd081b595d60521b60448201526064016104e7565b6005546040516323b872dd60e01b81526001600160a01b03909116906323b872dd9061072790339030908a90600401611b14565b6020604051808303816000875af1158015610746573d6000803e3d6000fd5b505050506040513d601f19601f8201168201806040525081019061076a9190611b38565b5060065460405163a9059cbb60e01b8152336004820152602481018390526001600160a01b039091169063a9059cbb906044016020604051808303816000875af11580156107bc573d6000803e3d6000fd5b505050506040513d601f19601f820116820180604052508101906107e09190611b38565b50600654604080516001600160a01b03909216825260208201879052810182905233907f4b5796113f074ebf8f11d5bcdeb6349b2fbe47abed78419cdcdbbc15c6fcf8459060600160405180910390a295945050505050565b3360008181526001602090815260408083206001600160a01b03871684529091528120549091610497918590610870908690611b70565b611195565b6006546040516370a0823160e01b815233600482015260009183916001600160a01b03909116906370a0823190602401602060405180830381865afa1580156108c2573d6000803e3d6000fd5b505050506040513d601f19601f820116820180604052508101906108e69190611ac0565b10156109345760405162461bcd60e51b815260206004820152601960248201527f474e583a206e6f7420656e6f75676820474e584e61746976650000000000000060448201526064016104e7565b600061051384843361152b565b61094c83838361152b565b50505050565b60606004805461040790611ad9565b60075460405163bbe4f6db60e01b81526001600160a01b038381166004830152600092169063bbe4f6db90602401602060405180830381865afa1580156109ac573d6000803e3d6000fd5b505050506040513d601f19601f820116820180604052508101906109d09190611b88565b90506001600160a01b03811630148015906109f357506001600160a01b03811615155b610a335760405162461bcd60e51b815260206004820152601160248201527011d3960e881a5b9d985b1a59081c1bdbdb607a1b60448201526064016104e7565b6000610a3d611164565b90506000610a49610385565b90506000610a588784846112ba565b6005546040516323b872dd60e01b81529192506001600160a01b0316906323b872dd90610a8d90339030908c90600401611b14565b6020604051808303816000875af1158015610aac573d6000803e3d6000fd5b505050506040513d601f19601f82011682018060405250810190610ad09190611b38565b5060405163926a14f360e01b815260048101879052602481018290523360448201526001600160a01b0385169063926a14f390606401600060405180830381600087803b158015610b2057600080fd5b505af1158015610b34573d6000803e3d6000fd5b5050505050505050505050565b60008060008311610b8a5760405162461bcd60e51b8152602060048201526013602482015272474e583a20616d6f756e7420746f6f206c6f7760681b60448201526064016104e7565b6000610b9560025490565b84610b9e610385565b610ba89190611ba5565b610bb29190611bc4565b90506000610bbf60025490565b85610bc8611164565b610bd29190611ba5565b610bdc9190611bc4565b9050610be833866116f0565b60055460405163a9059cbb60e01b8152336004820152602481018390526001600160a01b039091169063a9059cbb906044016020604051808303816000875af1158015610c39573d6000803e3d6000fd5b505050506040513d601f19601f82011682018060405250810190610c5d9190611b38565b5060065460405163a9059cbb60e01b8152336004820152602481018490526001600160a01b039091169063a9059cbb906044016020604051808303816000875af1158015610caf573d6000803e3d6000fd5b505050506040513d601f19601f82011682018060405250810190610cd39190611b38565b50604051858152339030907f4c789f733846d11909d875447c5f26d8e24e49339027d125eda4a5bf512da5099060200160405180910390a39094909350915050565b6000610d1f611164565b610e67576005546040516323b872dd60e01b81526001600160a01b03909116906323b872dd90610d5790339030908890600401611b14565b6020604051808303816000875af1158015610d76573d6000803e3d6000fd5b505050506040513d601f19601f82011682018060405250810190610d9a9190611b38565b506006546040516323b872dd60e01b81526001600160a01b03909116906323b872dd90610dcf90339030908790600401611b14565b6020604051808303816000875af1158015610dee573d6000803e3d6000fd5b505050506040513d601f19601f82011682018060405250810190610e129190611b38565b506000610e1d610385565b9050610e293382611836565b604051818152309033907f4c789f733846d11909d875447c5f26d8e24e49339027d125eda4a5bf512da5099060200160405180910390a3905061049b565b600082610e72610385565b610e7c9190611be6565b90506000610e88611164565b9050600082610e978387611ba5565b610ea19190611bc4565b905080851015610ef35760405162461bcd60e51b815260206004820152601e60248201527f474e583a20696e73756666696369656e7420746f6b656e20616d6f756e74000060448201526064016104e7565b6005546040516323b872dd60e01b81526001600160a01b03909116906323b872dd90610f2790339030908b90600401611b14565b6020604051808303816000875af1158015610f46573d6000803e3d6000fd5b505050506040513d601f19601f82011682018060405250810190610f6a9190611b38565b506006546040516323b872dd60e01b81526001600160a01b03909116906323b872dd90610f9f90339030908a90600401611b14565b6020604051808303816000875af1158015610fbe573d6000803e3d6000fd5b505050506040513d601f19601f82011682018060405250810190610fe29190611b38565b5060008386610ff060025490565b610ffa9190611ba5565b6110049190611bc4565b90506110103382611836565b604051868152309033907f4c789f733846d11909d875447c5f26d8e24e49339027d125eda4a5bf512da5099060200160405180910390a3935061049b92505050565b3360009081526001602090815260408083206001600160a01b0386168452909152812054828110156110d45760405162461bcd60e51b815260206004820152602560248201527f45524332303a2064656372656173656420616c6c6f77616e63652062656c6f77604482015264207a65726f60d81b60648201526084016104e7565b6110e13385858403611195565b5060019392505050565b600061049733848461135d565b60008082116111415760405162461bcd60e51b815260206004820152601560248201527423a72c1d103a37b7903332bb9023a72c2a37b5b2b760591b60448201526064016104e7565b600061114b611164565b90506000611157610385565b90506105138483836112ba565b6005546040516370a0823160e01b81523060048201526000916001600160a01b0316906370a08231906024016103b2565b6001600160a01b0383166111f75760405162461bcd60e51b8152602060048201526024808201527f45524332303a20617070726f76652066726f6d20746865207a65726f206164646044820152637265737360e01b60648201526084016104e7565b6001600160a01b0382166112585760405162461bcd60e51b815260206004820152602260248201527f45524332303a20617070726f766520746f20746865207a65726f206164647265604482015261737360f01b60648201526084016104e7565b6001600160a01b0383811660008181526001602090815260408083209487168084529482529182902085905590518481527f8c5be1e5ebec7d5bd14f71427d1e84f3dd0314c0f7b2291e5b200ac8c7c3b92591015b60405180910390a3505050565b600080831180156112cb5750600082115b61130f5760405162461bcd60e51b8152602060048201526015602482015274474e583a20696e76616c696420726573657276657360581b60448201526064016104e7565b600061131d856103e3611ba5565b9050600061132b8483611ba5565b905060008261133c876103e8611ba5565b6113469190611b70565b90506113528183611bc4565b979650505050505050565b6001600160a01b0383166113c15760405162461bcd60e51b815260206004820152602560248201527f45524332303a207472616e736665722066726f6d20746865207a65726f206164604482015264647265737360d81b60648201526084016104e7565b6001600160a01b0382166114235760405162461bcd60e51b815260206004820152602360248201527f45524332303a207472616e7366657220746f20746865207a65726f206164647260448201526265737360e81b60648201526084016104e7565b6001600160a01b0383166000908152602081905260409020548181101561149b5760405162461bcd60e51b815260206004820152602660248201527f45524332303a207472616e7366657220616d6f756e7420657863656564732062604482015265616c616e636560d01b60648201526084016104e7565b6001600160a01b038085166000908152602081905260408082208585039055918516815290812080548492906114d2908490611b70565b92505081905550826001600160a01b0316846001600160a01b03167fddf252ad1be2c89b69c2b068fc378daa952ba7f163c4a11628f55a4df523b3ef8460405161151e91815260200190565b60405180910390a361094c565b600080611536611164565b90506000611542610385565b9050600061155a866115548185611be6565b856112ba565b90508681116115a45760405162461bcd60e51b815260206004820152601660248201527511d3960e881b5a5b951bdad95b9cc81b9bdd081b595d60521b60448201526064016104e7565b6005546040516323b872dd60e01b81526001600160a01b03909116906323b872dd906115d890339030908b90600401611b14565b6020604051808303816000875af11580156115f7573d6000803e3d6000fd5b505050506040513d601f19601f8201168201806040525081019061161b9190611b38565b5060065460405163a9059cbb60e01b81526001600160a01b038781166004830152602482018490529091169063a9059cbb906044016020604051808303816000875af115801561166f573d6000803e3d6000fd5b505050506040513d601f19601f820116820180604052508101906116939190611b38565b50600554604080516001600160a01b03928316815260208101899052908101839052908616907f4b5796113f074ebf8f11d5bcdeb6349b2fbe47abed78419cdcdbbc15c6fcf8459060600160405180910390a29695505050505050565b6001600160a01b0382166117505760405162461bcd60e51b815260206004820152602160248201527f45524332303a206275726e2066726f6d20746865207a65726f206164647265736044820152607360f81b60648201526084016104e7565b6001600160a01b038216600090815260208190526040902054818110156117c45760405162461bcd60e51b815260206004820152602260248201527f45524332303a206275726e20616d6f756e7420657863656564732062616c616e604482015261636560f01b60648201526084016104e7565b6001600160a01b03831660009081526020819052604081208383039055600280548492906117f3908490611be6565b90915550506040518281526000906001600160a01b038516907fddf252ad1be2c89b69c2b068fc378daa952ba7f163c4a11628f55a4df523b3ef906020016112ad565b6001600160a01b03821661188c5760405162461bcd60e51b815260206004820152601f60248201527f45524332303a206d696e7420746f20746865207a65726f20616464726573730060448201526064016104e7565b806002600082825461189e9190611b70565b90915550506001600160a01b038216600090815260208190526040812080548392906118cb908490611b70565b90915550506040518181526001600160a01b038316906000907fddf252ad1be2c89b69c2b068fc378daa952ba7f163c4a11628f55a4df523b3ef9060200160405180910390a35050565b600060208083528351808285015260005b8181101561194257858101830151858201604001528201611926565b81811115611954576000604083870101525b50601f01601f1916929092016040019392505050565b6001600160a01b038116811461197f57600080fd5b50565b6000806040838503121561199557600080fd5b82356119a08161196a565b946020939093013593505050565b6000602082840312156119c057600080fd5b5035919050565b6000806000606084860312156119dc57600080fd5b83356119e78161196a565b925060208401356119f78161196a565b929592945050506040919091013590565b60008060408385031215611a1b57600080fd5b50508035926020909101359150565b600060208284031215611a3c57600080fd5b8135611a478161196a565b9392505050565b600080600060608486031215611a6357600080fd5b83359250602084013591506040840135611a7c8161196a565b809150509250925092565b60008060408385031215611a9a57600080fd5b8235611aa58161196a565b91506020830135611ab58161196a565b809150509250929050565b600060208284031215611ad257600080fd5b5051919050565b600181811c90821680611aed57607f821691505b60208210811415611b0e57634e487b7160e01b600052602260045260246000fd5b50919050565b6001600160a01b039384168152919092166020820152604081019190915260600190565b600060208284031215611b4a57600080fd5b81518015158114611a4757600080fd5b634e487b7160e01b600052601160045260246000fd5b60008219821115611b8357611b83611b5a565b500190565b600060208284031215611b9a57600080fd5b8151611a478161196a565b6000816000190483118215151615611bbf57611bbf611b5a565b500290565b600082611be157634e487b7160e01b600052601260045260246000fd5b500490565b600082821015611bf857611bf8611b5a565b50039056fea2646970667358221220e74d55593e1fba8f9678dca366c6abcc921b3f79771cfb01071f8d53ad6a17f864736f6c634300080b0033",
  "bytecodeSha1": "54c43c54f2c0131213ae772a3d5615a1f13481ef",
  "compiler": {
    "evm_version": "istanbul",
    "optimizer": {
      "enabled": true,
      "runs": 200
    },
    "version": "0.8.11+commit.d7f03943"
  },
  "contractName": "GNXPool",
  "language": "Solidity",
  "natspec": {
    "kind": "dev",
    "methods": {
      "_tokenSwap(uint256,uint256,address)": {
        "details": "Used for GNXToken to GNXToken swaps. Done through exchanging GNXTokens in an intial swap to GNXToken which is then swapped to another GNXToken.Should not be interacted with directly by user calls. This exists for other contracts to facilitate token swaps.",
        "notice": "helper function specifically for tokenSwap --> only meant for other exchange contracts ONLY FOR EXCHANGE CONTRACTS Helper function specifically for _tokenSwap / tokenSwap.Facilitates token to token swaps. Allows the circumvension of  double fees when changing from one GNXToken to another GNXToken. ",
        "params": {
          "minTokens": "Minimum number of tokens expected from output.",
          "nativeSold": "Quantity of GNXNative sold."
        }
      },
      "addLiquidity(uint256,uint256)": {
        "details": "ERC20 LP tokens are minted equal to the GNXNative deposit made. Required deposit amount must be calculated in front-end. Equal deposit is enforced by contract to prevent price manipulation.",
        "notice": "Ability to add liquidity to the pool (mints LP tokens) Add liquidity of GNXToken and GNXNative to this trading pool. Users are rewarded in LP which can be exchanged for liquidity and trading accrued fees.Liquidity of both tokens added must be equal. Technically only one param required but having two params for both tokens makes it clear that both are required to add liquidity.",
        "params": {
          "nativeDeposit": "Quantity of GNXNative deposited.",
          "tokenDeposit": "Quantity of GNXToken deposited."
        },
        "returns": {
          "_0": "Quantity of LP tokens minted to msg.sender."
        }
      },
      "allowance(address,address)": {
        "details": "See {IERC20-allowance}."
      },
      "approve(address,uint256)": {
        "details": "See {IERC20-approve}. Requirements: - `spender` cannot be the zero address."
      },
      "balanceOf(address)": {
        "details": "See {IERC20-balanceOf}."
      },
      "buyNative(uint256,uint256)": {
        "details": "This function is akin to tokenSwawp. This is the base function for switching from GNXTokens to GNXNative.",
        "notice": "Generic purchase function for GNXNative General purchase function where GNXTokens are sold in exchange  for GNXNative. Requires stating a minimum expected return to prevent price spoofing.",
        "params": {
          "minNative": "Minimum expected output quantity of GNXNative.",
          "tokensSold": "Quantity of GNXTokens sold."
        },
        "returns": {
          "_0": "Quantity of GNXNative output."
        }
      },
      "buyTokens(uint256,uint256)": {
        "notice": "Generic purchase function for GNXTokens. General purchase function for exchanging GNXNative for GNXTokens.",
        "params": {
          "minTokens": "Minimum number of tokens expected from output.",
          "nativeSold": "Quantity of GNXNative sold."
        },
        "returns": {
          "_0": "Quantity of GNXTokens output."
        }
      },
      "decimals()": {
        "details": "Returns the number of decimals used to get its user representation. For example, if `decimals` equals `2`, a balance of `505` tokens should be displayed to a user as `5.05` (`505 / 10 ** 2`). Tokens usually opt for a value of 18, imitating the relationship between Ether and Wei. This is the value {ERC20} uses, unless this function is overridden; NOTE: This information is only used for _display_ purposes: it in no way affects any of the arithmetic of the contract, including {IERC20-balanceOf} and {IERC20-transfer}."
      },
      "decreaseAllowance(address,uint256)": {
        "details": "Atomically decreases the allowance granted to `spender` by the caller. This is an alternative to {approve} that can be used as a mitigation for problems described in {IERC20-approve}. Emits an {Approval} event indicating the updated allowance. Requirements: - `spender` cannot be the zero address. - `spender` must have allowance for the caller of at least `subtractedValue`."
      },
      "increaseAllowance(address,uint256)": {
        "details": "Atomically increases the allowance granted to `spender` by the caller. This is an alternative to {approve} that can be used as a mitigation for problems described in {IERC20-approve}. Emits an {Approval} event indicating the updated allowance. Requirements: - `spender` cannot be the zero address."
      },
      "name()": {
        "details": "Returns the name of the token."
      },
      "nativeReserve()": {
        "notice": "View function for GNXNative reserve View function for GNXNative stored in this contract.",
        "returns": {
          "_0": "Amount of GNXNative held in this contract."
        }
      },
      "nativeToToken(uint256)": {
        "notice": "Lookup function Lookup function to call current price for selling GNXNative to receive GNXToken.",
        "params": {
          "nativeSold": "Quantity of GNXNative to be sold."
        },
        "returns": {
          "_0": "Output GNXToken amount."
        }
      },
      "removeLiquidity(uint256)": {
        "notice": "Exchange LPs for equal return of GNXToken and GNXNative. Burn LP tokens in exchange for GNXNative and GNXTokens based  on current reserves, and amount being submitted. Portion of accrued fees are also returned in the respective token. Potentially results in impermenant loss.",
        "params": {
          "amount": "Quantity of LP tokens submitted for exchange."
        },
        "returns": {
          "_0": "Tuple of GNXNative output, and GNXToken output."
        }
      },
      "symbol()": {
        "details": "Returns the symbol of the token, usually a shorter version of the name."
      },
      "tokenReserve()": {
        "notice": "View function for GNXToken reserve View function for GNXTokens stored in this contract",
        "returns": {
          "_0": "Amount of GNXNative held in this contract"
        }
      },
      "tokenToNative(uint256)": {
        "notice": "Lookup function Lookup function to call current price for selling GNXToken to receive GNXNative.",
        "params": {
          "tokensSold": "Quantity of GNXTokens to be sold."
        },
        "returns": {
          "_0": "Output GNXNative amount."
        }
      },
      "totalSupply()": {
        "details": "See {IERC20-totalSupply}."
      },
      "transfer(address,uint256)": {
        "details": "See {IERC20-transfer}. Requirements: - `recipient` cannot be the zero address. - the caller must have a balance of at least `amount`."
      },
      "transferFrom(address,address,uint256)": {
        "details": "See {IERC20-transferFrom}. Emits an {Approval} event indicating the updated allowance. This is not required by the EIP. See the note at the beginning of {ERC20}. Requirements: - `sender` and `recipient` cannot be the zero address. - `sender` must have a balance of at least `amount`. - the caller must have allowance for ``sender``'s tokens of at least `amount`."
      }
    },
    "version": 1
  },
  "opcodes": "PUSH1 0x80 PUSH1 0x40 MSTORE CALLVALUE DUP1 ISZERO PUSH2 0x10 JUMPI PUSH1 0x0 DUP1 REVERT JUMPDEST POP PUSH1 0x4 CALLDATASIZE LT PUSH2 0x158 JUMPI PUSH1 0x0 CALLDATALOAD PUSH1 0xE0 SHR DUP1 PUSH4 0x926A14F3 GT PUSH2 0xC3 JUMPI DUP1 PUSH4 0xA9059CBB GT PUSH2 0x7C JUMPI DUP1 PUSH4 0xA9059CBB EQ PUSH2 0x2F8 JUMPI DUP1 PUSH4 0xAF549114 EQ PUSH2 0x30B JUMPI DUP1 PUSH4 0xC45A0155 EQ PUSH2 0x31E JUMPI DUP1 PUSH4 0xCBCB3171 EQ PUSH2 0x331 JUMPI DUP1 PUSH4 0xDD62ED3E EQ PUSH2 0x339 JUMPI DUP1 PUSH4 0xFC0C546A EQ PUSH2 0x372 JUMPI PUSH1 0x0 DUP1 REVERT JUMPDEST DUP1 PUSH4 0x926A14F3 EQ PUSH2 0x27A JUMPI DUP1 PUSH4 0x95D89B41 EQ PUSH2 0x28F JUMPI DUP1 PUSH4 0x9AB714DB EQ PUSH2 0x297 JUMPI DUP1 PUSH4 0x9C8F9F23 EQ PUSH2 0x2AA JUMPI DUP1 PUSH4 0x9CD441DA EQ PUSH2 0x2D2 JUMPI DUP1 PUSH4 0xA457C2D7 EQ PUSH2 0x2E5 JUMPI PUSH1 0x0 DUP1 REVERT JUMPDEST DUP1 PUSH4 0x23B872DD GT PUSH2 0x115 JUMPI DUP1 PUSH4 0x23B872DD EQ PUSH2 0x1F6 JUMPI DUP1 PUSH4 0x313CE567 EQ PUSH2 0x209 JUMPI DUP1 PUSH4 0x318401C2 EQ PUSH2 0x218 JUMPI DUP1 PUSH4 0x39509351 EQ PUSH2 0x22B JUMPI DUP1 PUSH4 0x70A08231 EQ PUSH2 0x23E JUMPI DUP1 PUSH4 0x7975CE28 EQ PUSH2 0x267 JUMPI PUSH1 0x0 DUP1 REVERT JUMPDEST DUP1 PUSH4 0x48BD60E EQ PUSH2 0x15D JUMPI DUP1 PUSH4 0x6FDDE03 EQ PUSH2 0x178 JUMPI DUP1 PUSH4 0x95EA7B3 EQ PUSH2 0x18D JUMPI DUP1 PUSH4 0x11B0B42D EQ PUSH2 0x1B0 JUMPI DUP1 PUSH4 0x17DBF18C EQ PUSH2 0x1DB JUMPI DUP1 PUSH4 0x18160DDD EQ PUSH2 0x1EE JUMPI JUMPDEST PUSH1 0x0 DUP1 REVERT JUMPDEST PUSH2 0x165 PUSH2 0x385 JUMP JUMPDEST PUSH1 0x40 MLOAD SWAP1 DUP2 MSTORE PUSH1 0x20 ADD JUMPDEST PUSH1 0x40 MLOAD DUP1 SWAP2 SUB SWAP1 RETURN JUMPDEST PUSH2 0x180 PUSH2 0x3F8 JUMP JUMPDEST PUSH1 0x40 MLOAD PUSH2 0x16F SWAP2 SWAP1 PUSH2 0x1915 JUMP JUMPDEST PUSH2 0x1A0 PUSH2 0x19B CALLDATASIZE PUSH1 0x4 PUSH2 0x1982 JUMP JUMPDEST PUSH2 0x48A JUMP JUMPDEST PUSH1 0x40 MLOAD SWAP1 ISZERO ISZERO DUP2 MSTORE PUSH1 0x20 ADD PUSH2 0x16F JUMP JUMPDEST PUSH1 0x6 SLOAD PUSH2 0x1C3 SWAP1 PUSH1 0x1 PUSH1 0x1 PUSH1 0xA0 SHL SUB AND DUP2 JUMP JUMPDEST PUSH1 0x40 MLOAD PUSH1 0x1 PUSH1 0x1 PUSH1 0xA0 SHL SUB SWAP1 SWAP2 AND DUP2 MSTORE PUSH1 0x20 ADD PUSH2 0x16F JUMP JUMPDEST PUSH2 0x165 PUSH2 0x1E9 CALLDATASIZE PUSH1 0x4 PUSH2 0x19AE JUMP JUMPDEST PUSH2 0x4A1 JUMP JUMPDEST PUSH1 0x2 SLOAD PUSH2 0x165 JUMP JUMPDEST PUSH2 0x1A0 PUSH2 0x204 CALLDATASIZE PUSH1 0x4 PUSH2 0x19C7 JUMP JUMPDEST PUSH2 0x51B JUMP JUMPDEST PUSH1 0x40 MLOAD PUSH1 0x12 DUP2 MSTORE PUSH1 0x20 ADD PUSH2 0x16F JUMP JUMPDEST PUSH2 0x165 PUSH2 0x226 CALLDATASIZE PUSH1 0x4 PUSH2 0x1A08 JUMP JUMPDEST PUSH2 0x5C5 JUMP JUMPDEST PUSH2 0x1A0 PUSH2 0x239 CALLDATASIZE PUSH1 0x4 PUSH2 0x1982 JUMP JUMPDEST PUSH2 0x839 JUMP JUMPDEST PUSH2 0x165 PUSH2 0x24C CALLDATASIZE PUSH1 0x4 PUSH2 0x1A2A JUMP JUMPDEST PUSH1 0x1 PUSH1 0x1 PUSH1 0xA0 SHL SUB AND PUSH1 0x0 SWAP1 DUP2 MSTORE PUSH1 0x20 DUP2 SWAP1 MSTORE PUSH1 0x40 SWAP1 KECCAK256 SLOAD SWAP1 JUMP JUMPDEST PUSH2 0x165 PUSH2 0x275 CALLDATASIZE PUSH1 0x4 PUSH2 0x1A08 JUMP JUMPDEST PUSH2 0x875 JUMP JUMPDEST PUSH2 0x28D PUSH2 0x288 CALLDATASIZE PUSH1 0x4 PUSH2 0x1A4E JUMP JUMPDEST PUSH2 0x941 JUMP JUMPDEST STOP JUMPDEST PUSH2 0x180 PUSH2 0x952 JUMP JUMPDEST PUSH2 0x28D PUSH2 0x2A5 CALLDATASIZE PUSH1 0x4 PUSH2 0x1A4E JUMP JUMPDEST PUSH2 0x961 JUMP JUMPDEST PUSH2 0x2BD PUSH2 0x2B8 CALLDATASIZE PUSH1 0x4 PUSH2 0x19AE JUMP JUMPDEST PUSH2 0xB41 JUMP JUMPDEST PUSH1 0x40 DUP1 MLOAD SWAP3 DUP4 MSTORE PUSH1 0x20 DUP4 ADD SWAP2 SWAP1 SWAP2 MSTORE ADD PUSH2 0x16F JUMP JUMPDEST PUSH2 0x165 PUSH2 0x2E0 CALLDATASIZE PUSH1 0x4 PUSH2 0x1A08 JUMP JUMPDEST PUSH2 0xD15 JUMP JUMPDEST PUSH2 0x1A0 PUSH2 0x2F3 CALLDATASIZE PUSH1 0x4 PUSH2 0x1982 JUMP JUMPDEST PUSH2 0x1052 JUMP JUMPDEST PUSH2 0x1A0 PUSH2 0x306 CALLDATASIZE PUSH1 0x4 PUSH2 0x1982 JUMP JUMPDEST PUSH2 0x10EB JUMP JUMPDEST PUSH2 0x165 PUSH2 0x319 CALLDATASIZE PUSH1 0x4 PUSH2 0x19AE JUMP JUMPDEST PUSH2 0x10F8 JUMP JUMPDEST PUSH1 0x7 SLOAD PUSH2 0x1C3 SWAP1 PUSH1 0x1 PUSH1 0x1 PUSH1 0xA0 SHL SUB AND DUP2 JUMP JUMPDEST PUSH2 0x165 PUSH2 0x1164 JUMP JUMPDEST PUSH2 0x165 PUSH2 0x347 CALLDATASIZE PUSH1 0x4 PUSH2 0x1A87 JUMP JUMPDEST PUSH1 0x1 PUSH1 0x1 PUSH1 0xA0 SHL SUB SWAP2 DUP3 AND PUSH1 0x0 SWAP1 DUP2 MSTORE PUSH1 0x1 PUSH1 0x20 SWAP1 DUP2 MSTORE PUSH1 0x40 DUP1 DUP4 KECCAK256 SWAP4 SWAP1 SWAP5 AND DUP3 MSTORE SWAP2 SWAP1 SWAP2 MSTORE KECCAK256 SLOAD SWAP1 JUMP JUMPDEST PUSH1 0x5 SLOAD PUSH2 0x1C3 SWAP1 PUSH1 0x1 PUSH1 0x1 PUSH1 0xA0 SHL SUB AND DUP2 JUMP JUMPDEST PUSH1 0x6 SLOAD PUSH1 0x40 MLOAD PUSH4 0x70A08231 PUSH1 0xE0 SHL DUP2 MSTORE ADDRESS PUSH1 0x4 DUP3 ADD MSTORE PUSH1 0x0 SWAP2 PUSH1 0x1 PUSH1 0x1 PUSH1 0xA0 SHL SUB AND SWAP1 PUSH4 0x70A08231 SWAP1 PUSH1 0x24 ADD JUMPDEST PUSH1 0x20 PUSH1 0x40 MLOAD DUP1 DUP4 SUB DUP2 DUP7 GAS STATICCALL ISZERO DUP1 ISZERO PUSH2 0x3CF JUMPI RETURNDATASIZE PUSH1 0x0 DUP1 RETURNDATACOPY RETURNDATASIZE PUSH1 0x0 REVERT JUMPDEST POP POP POP POP PUSH1 0x40 MLOAD RETURNDATASIZE PUSH1 0x1F NOT PUSH1 0x1F DUP3 ADD AND DUP3 ADD DUP1 PUSH1 0x40 MSTORE POP DUP2 ADD SWAP1 PUSH2 0x3F3 SWAP2 SWAP1 PUSH2 0x1AC0 JUMP JUMPDEST SWAP1 POP SWAP1 JUMP JUMPDEST PUSH1 0x60 PUSH1 0x3 DUP1 SLOAD PUSH2 0x407 SWAP1 PUSH2 0x1AD9 JUMP JUMPDEST DUP1 PUSH1 0x1F ADD PUSH1 0x20 DUP1 SWAP2 DIV MUL PUSH1 0x20 ADD PUSH1 0x40 MLOAD SWAP1 DUP2 ADD PUSH1 0x40 MSTORE DUP1 SWAP3 SWAP2 SWAP1 DUP2 DUP2 MSTORE PUSH1 0x20 ADD DUP3 DUP1 SLOAD PUSH2 0x433 SWAP1 PUSH2 0x1AD9 JUMP JUMPDEST DUP1 ISZERO PUSH2 0x480 JUMPI DUP1 PUSH1 0x1F LT PUSH2 0x455 JUMPI PUSH2 0x100 DUP1 DUP4 SLOAD DIV MUL DUP4 MSTORE SWAP2 PUSH1 0x20 ADD SWAP2 PUSH2 0x480 JUMP JUMPDEST DUP3 ADD SWAP2 SWAP1 PUSH1 0x0 MSTORE PUSH1 0x20 PUSH1 0x0 KECCAK256 SWAP1 JUMPDEST DUP2 SLOAD DUP2 MSTORE SWAP1 PUSH1 0x1 ADD SWAP1 PUSH1 0x20 ADD DUP1 DUP4 GT PUSH2 0x463 JUMPI DUP3 SWAP1 SUB PUSH1 0x1F AND DUP3 ADD SWAP2 JUMPDEST POP POP POP POP POP SWAP1 POP SWAP1 JUMP JUMPDEST PUSH1 0x0 PUSH2 0x497 CALLER DUP5 DUP5 PUSH2 0x1195 JUMP JUMPDEST POP PUSH1 0x1 JUMPDEST SWAP3 SWAP2 POP POP JUMP JUMPDEST PUSH1 0x0 DUP1 DUP3 GT PUSH2 0x4F0 JUMPI PUSH1 0x40 MLOAD PUSH3 0x461BCD PUSH1 0xE5 SHL DUP2 MSTORE PUSH1 0x20 PUSH1 0x4 DUP3 ADD MSTORE PUSH1 0x16 PUSH1 0x24 DUP3 ADD MSTORE PUSH22 0x474E583A20746F6F2066657720474E584E6174697665 PUSH1 0x50 SHL PUSH1 0x44 DUP3 ADD MSTORE PUSH1 0x64 ADD JUMPDEST PUSH1 0x40 MLOAD DUP1 SWAP2 SUB SWAP1 REVERT JUMPDEST PUSH1 0x0 PUSH2 0x4FA PUSH2 0x1164 JUMP JUMPDEST SWAP1 POP PUSH1 0x0 PUSH2 0x506 PUSH2 0x385 JUMP JUMPDEST SWAP1 POP PUSH2 0x513 DUP5 DUP3 DUP5 PUSH2 0x12BA JUMP JUMPDEST SWAP5 SWAP4 POP POP POP POP JUMP JUMPDEST PUSH1 0x0 PUSH2 0x528 DUP5 DUP5 DUP5 PUSH2 0x135D JUMP JUMPDEST PUSH1 0x1 PUSH1 0x1 PUSH1 0xA0 SHL SUB DUP5 AND PUSH1 0x0 SWAP1 DUP2 MSTORE PUSH1 0x1 PUSH1 0x20 SWAP1 DUP2 MSTORE PUSH1 0x40 DUP1 DUP4 KECCAK256 CALLER DUP5 MSTORE SWAP1 SWAP2 MSTORE SWAP1 KECCAK256 SLOAD DUP3 DUP2 LT ISZERO PUSH2 0x5AD JUMPI PUSH1 0x40 MLOAD PUSH3 0x461BCD PUSH1 0xE5 SHL DUP2 MSTORE PUSH1 0x20 PUSH1 0x4 DUP3 ADD MSTORE PUSH1 0x28 PUSH1 0x24 DUP3 ADD MSTORE PUSH32 0x45524332303A207472616E7366657220616D6F756E7420657863656564732061 PUSH1 0x44 DUP3 ADD MSTORE PUSH8 0x6C6C6F77616E6365 PUSH1 0xC0 SHL PUSH1 0x64 DUP3 ADD MSTORE PUSH1 0x84 ADD PUSH2 0x4E7 JUMP JUMPDEST PUSH2 0x5BA DUP6 CALLER DUP6 DUP5 SUB PUSH2 0x1195 JUMP JUMPDEST POP PUSH1 0x1 SWAP5 SWAP4 POP POP POP POP JUMP JUMPDEST PUSH1 0x5 SLOAD PUSH1 0x40 MLOAD PUSH4 0x70A08231 PUSH1 0xE0 SHL DUP2 MSTORE CALLER PUSH1 0x4 DUP3 ADD MSTORE PUSH1 0x0 SWAP2 DUP4 SWAP2 PUSH1 0x1 PUSH1 0x1 PUSH1 0xA0 SHL SUB SWAP1 SWAP2 AND SWAP1 PUSH4 0x70A08231 SWAP1 PUSH1 0x24 ADD PUSH1 0x20 PUSH1 0x40 MLOAD DUP1 DUP4 SUB DUP2 DUP7 GAS STATICCALL ISZERO DUP1 ISZERO PUSH2 0x612 JUMPI RETURNDATASIZE PUSH1 0x0 DUP1 RETURNDATACOPY RETURNDATASIZE PUSH1 0x0 REVERT JUMPDEST POP POP POP POP PUSH1 0x40 MLOAD RETURNDATASIZE PUSH1 0x1F NOT PUSH1 0x1F DUP3 ADD AND DUP3 ADD DUP1 PUSH1 0x40 MSTORE POP DUP2 ADD SWAP1 PUSH2 0x636 SWAP2 SWAP1 PUSH2 0x1AC0 JUMP JUMPDEST LT ISZERO PUSH2 0x684 JUMPI PUSH1 0x40 MLOAD PUSH3 0x461BCD PUSH1 0xE5 SHL DUP2 MSTORE PUSH1 0x20 PUSH1 0x4 DUP3 ADD MSTORE PUSH1 0x19 PUSH1 0x24 DUP3 ADD MSTORE PUSH32 0x474E583A206E6F7420656E6F75676820474E58546F6B656E7300000000000000 PUSH1 0x44 DUP3 ADD MSTORE PUSH1 0x64 ADD PUSH2 0x4E7 JUMP JUMPDEST PUSH1 0x0 PUSH2 0x68E PUSH2 0x1164 JUMP JUMPDEST SWAP1 POP PUSH1 0x0 PUSH2 0x69A PUSH2 0x385 JUMP JUMPDEST SWAP1 POP PUSH1 0x0 PUSH2 0x6A9 DUP6 DUP5 DUP5 PUSH2 0x12BA JUMP JUMPDEST SWAP1 POP DUP6 DUP2 GT PUSH2 0x6F3 JUMPI PUSH1 0x40 MLOAD PUSH3 0x461BCD PUSH1 0xE5 SHL DUP2 MSTORE PUSH1 0x20 PUSH1 0x4 DUP3 ADD MSTORE PUSH1 0x16 PUSH1 0x24 DUP3 ADD MSTORE PUSH22 0x11D3960E881B5A5B93985D1A5D99481B9BDD081B595D PUSH1 0x52 SHL PUSH1 0x44 DUP3 ADD MSTORE PUSH1 0x64 ADD PUSH2 0x4E7 JUMP JUMPDEST PUSH1 0x5 SLOAD PUSH1 0x40 MLOAD PUSH4 0x23B872DD PUSH1 0xE0 SHL DUP2 MSTORE PUSH1 0x1 PUSH1 0x1 PUSH1 0xA0 SHL SUB SWAP1 SWAP2 AND SWAP1 PUSH4 0x23B872DD SWAP1 PUSH2 0x727 SWAP1 CALLER SWAP1 ADDRESS SWAP1 DUP11 SWAP1 PUSH1 0x4 ADD PUSH2 0x1B14 JUMP JUMPDEST PUSH1 0x20 PUSH1 0x40 MLOAD DUP1 DUP4 SUB DUP2 PUSH1 0x0 DUP8 GAS CALL ISZERO DUP1 ISZERO PUSH2 0x746 JUMPI RETURNDATASIZE PUSH1 0x0 DUP1 RETURNDATACOPY RETURNDATASIZE PUSH1 0x0 REVERT JUMPDEST POP POP POP POP PUSH1 0x40 MLOAD RETURNDATASIZE PUSH1 0x1F NOT PUSH1 0x1F DUP3 ADD AND DUP3 ADD DUP1 PUSH1 0x40 MSTORE POP DUP2 ADD SWAP1 PUSH2 0x76A SWAP2 SWAP1 PUSH2 0x1B38 JUMP JUMPDEST POP PUSH1 0x6 SLOAD PUSH1 0x40 MLOAD PUSH4 0xA9059CBB PUSH1 0xE0 SHL DUP2 MSTORE CALLER PUSH1 0x4 DUP3 ADD MSTORE PUSH1 0x24 DUP2 ADD DUP4 SWAP1 MSTORE PUSH1 0x1 PUSH1 0x1 PUSH1 0xA0 SHL SUB SWAP1 SWAP2 AND SWAP1 PUSH4 0xA9059CBB SWAP1 PUSH1 0x44 ADD PUSH1 0x20 PUSH1 0x40 MLOAD DUP1 DUP4 SUB DUP2 PUSH1 0x0 DUP8 GAS CALL ISZERO DUP1 ISZERO PUSH2 0x7BC JUMPI RETURNDATASIZE PUSH1 0x0 DUP1 RETURNDATACOPY RETURNDATASIZE PUSH1 0x0 REVERT JUMPDEST POP POP POP POP PUSH1 0x40 MLOAD RETURNDATASIZE PUSH1 0x1F NOT PUSH1 0x1F DUP3 ADD AND DUP3 ADD DUP1 PUSH1 0x40 MSTORE POP DUP2 ADD SWAP1 PUSH2 0x7E0 SWAP2 SWAP1 PUSH2 0x1B38 JUMP JUMPDEST POP PUSH1 0x6 SLOAD PUSH1 0x40 DUP1 MLOAD PUSH1 0x1 PUSH1 0x1 PUSH1 0xA0 SHL SUB SWAP1 SWAP3 AND DUP3 MSTORE PUSH1 0x20 DUP3 ADD DUP8 SWAP1 MSTORE DUP2 ADD DUP3 SWAP1 MSTORE CALLER SWAP1 PUSH32 0x4B5796113F074EBF8F11D5BCDEB6349B2FBE47ABED78419CDCDBBC15C6FCF845 SWAP1 PUSH1 0x60 ADD PUSH1 0x40 MLOAD DUP1 SWAP2 SUB SWAP1 LOG2 SWAP6 SWAP5 POP POP POP POP POP JUMP JUMPDEST CALLER PUSH1 0x0 DUP2 DUP2 MSTORE PUSH1 0x1 PUSH1 0x20 SWAP1 DUP2 MSTORE PUSH1 0x40 DUP1 DUP4 KECCAK256 PUSH1 0x1 PUSH1 0x1 PUSH1 0xA0 SHL SUB DUP8 AND DUP5 MSTORE SWAP1 SWAP2 MSTORE DUP2 KECCAK256 SLOAD SWAP1 SWAP2 PUSH2 0x497 SWAP2 DUP6 SWAP1 PUSH2 0x870 SWAP1 DUP7 SWAP1 PUSH2 0x1B70 JUMP JUMPDEST PUSH2 0x1195 JUMP JUMPDEST PUSH1 0x6 SLOAD PUSH1 0x40 MLOAD PUSH4 0x70A08231 PUSH1 0xE0 SHL DUP2 MSTORE CALLER PUSH1 0x4 DUP3 ADD MSTORE PUSH1 0x0 SWAP2 DUP4 SWAP2 PUSH1 0x1 PUSH1 0x1 PUSH1 0xA0 SHL SUB SWAP1 SWAP2 AND SWAP1 PUSH4 0x70A08231 SWAP1 PUSH1 0x24 ADD PUSH1 0x20 PUSH1 0x40 MLOAD DUP1 DUP4 SUB DUP2 DUP7 GAS STATICCALL ISZERO DUP1 ISZERO PUSH2 0x8C2 JUMPI RETURNDATASIZE PUSH1 0x0 DUP1 RETURNDATACOPY RETURNDATASIZE PUSH1 0x0 REVERT JUMPDEST POP POP POP POP PUSH1 0x40 MLOAD RETURNDATASIZE PUSH1 0x1F NOT PUSH1 0x1F DUP3 ADD AND DUP3 ADD DUP1 PUSH1 0x40 MSTORE POP DUP2 ADD SWAP1 PUSH2 0x8E6 SWAP2 SWAP1 PUSH2 0x1AC0 JUMP JUMPDEST LT ISZERO PUSH2 0x934 JUMPI PUSH1 0x40 MLOAD PUSH3 0x461BCD PUSH1 0xE5 SHL DUP2 MSTORE PUSH1 0x20 PUSH1 0x4 DUP3 ADD MSTORE PUSH1 0x19 PUSH1 0x24 DUP3 ADD MSTORE PUSH32 0x474E583A206E6F7420656E6F75676820474E584E617469766500000000000000 PUSH1 0x44 DUP3 ADD MSTORE PUSH1 0x64 ADD PUSH2 0x4E7 JUMP JUMPDEST PUSH1 0x0 PUSH2 0x513 DUP5 DUP5 CALLER PUSH2 0x152B JUMP JUMPDEST PUSH2 0x94C DUP4 DUP4 DUP4 PUSH2 0x152B JUMP JUMPDEST POP POP POP POP JUMP JUMPDEST PUSH1 0x60 PUSH1 0x4 DUP1 SLOAD PUSH2 0x407 SWAP1 PUSH2 0x1AD9 JUMP JUMPDEST PUSH1 0x7 SLOAD PUSH1 0x40 MLOAD PUSH4 0xBBE4F6DB PUSH1 0xE0 SHL DUP2 MSTORE PUSH1 0x1 PUSH1 0x1 PUSH1 0xA0 SHL SUB DUP4 DUP2 AND PUSH1 0x4 DUP4 ADD MSTORE PUSH1 0x0 SWAP3 AND SWAP1 PUSH4 0xBBE4F6DB SWAP1 PUSH1 0x24 ADD PUSH1 0x20 PUSH1 0x40 MLOAD DUP1 DUP4 SUB DUP2 DUP7 GAS STATICCALL ISZERO DUP1 ISZERO PUSH2 0x9AC JUMPI RETURNDATASIZE PUSH1 0x0 DUP1 RETURNDATACOPY RETURNDATASIZE PUSH1 0x0 REVERT JUMPDEST POP POP POP POP PUSH1 0x40 MLOAD RETURNDATASIZE PUSH1 0x1F NOT PUSH1 0x1F DUP3 ADD AND DUP3 ADD DUP1 PUSH1 0x40 MSTORE POP DUP2 ADD SWAP1 PUSH2 0x9D0 SWAP2 SWAP1 PUSH2 0x1B88 JUMP JUMPDEST SWAP1 POP PUSH1 0x1 PUSH1 0x1 PUSH1 0xA0 SHL SUB DUP2 AND ADDRESS EQ DUP1 ISZERO SWAP1 PUSH2 0x9F3 JUMPI POP PUSH1 0x1 PUSH1 0x1 PUSH1 0xA0 SHL SUB DUP2 AND ISZERO ISZERO JUMPDEST PUSH2 0xA33 JUMPI PUSH1 0x40 MLOAD PUSH3 0x461BCD PUSH1 0xE5 SHL DUP2 MSTORE PUSH1 0x20 PUSH1 0x4 DUP3 ADD MSTORE PUSH1 0x11 PUSH1 0x24 DUP3 ADD MSTORE PUSH17 0x11D3960E881A5B9D985B1A59081C1BDBDB PUSH1 0x7A SHL PUSH1 0x44 DUP3 ADD MSTORE PUSH1 0x64 ADD PUSH2 0x4E7 JUMP JUMPDEST PUSH1 0x0 PUSH2 0xA3D PUSH2 0x1164 JUMP JUMPDEST SWAP1 POP PUSH1 0x0 PUSH2 0xA49 PUSH2 0x385 JUMP JUMPDEST SWAP1 POP PUSH1 0x0 PUSH2 0xA58 DUP8 DUP5 DUP5 PUSH2 0x12BA JUMP JUMPDEST PUSH1 0x5 SLOAD PUSH1 0x40 MLOAD PUSH4 0x23B872DD PUSH1 0xE0 SHL DUP2 MSTORE SWAP2 SWAP3 POP PUSH1 0x1 PUSH1 0x1 PUSH1 0xA0 SHL SUB AND SWAP1 PUSH4 0x23B872DD SWAP1 PUSH2 0xA8D SWAP1 CALLER SWAP1 ADDRESS SWAP1 DUP13 SWAP1 PUSH1 0x4 ADD PUSH2 0x1B14 JUMP JUMPDEST PUSH1 0x20 PUSH1 0x40 MLOAD DUP1 DUP4 SUB DUP2 PUSH1 0x0 DUP8 GAS CALL ISZERO DUP1 ISZERO PUSH2 0xAAC JUMPI RETURNDATASIZE PUSH1 0x0 DUP1 RETURNDATACOPY RETURNDATASIZE PUSH1 0x0 REVERT JUMPDEST POP POP POP POP PUSH1 0x40 MLOAD RETURNDATASIZE PUSH1 0x1F NOT PUSH1 0x1F DUP3 ADD AND DUP3 ADD DUP1 PUSH1 0x40 MSTORE POP DUP2 ADD SWAP1 PUSH2 0xAD0 SWAP2 SWAP1 PUSH2 0x1B38 JUMP JUMPDEST POP PUSH1 0x40 MLOAD PUSH4 0x926A14F3 PUSH1 0xE0 SHL DUP2 MSTORE PUSH1 0x4 DUP2 ADD DUP8 SWAP1 MSTORE PUSH1 0x24 DUP2 ADD DUP3 SWAP1 MSTORE CALLER PUSH1 0x44 DUP3 ADD MSTORE PUSH1 0x1 PUSH1 0x1 PUSH1 0xA0 SHL SUB DUP6 AND SWAP1 PUSH4 0x926A14F3 SWAP1 PUSH1 0x64 ADD PUSH1 0x0 PUSH1 0x40 MLOAD DUP1 DUP4 SUB DUP2 PUSH1 0x0 DUP8 DUP1 EXTCODESIZE ISZERO DUP1 ISZERO PUSH2 0xB20 JUMPI PUSH1 0x0 DUP1 REVERT JUMPDEST POP GAS CALL ISZERO DUP1 ISZERO PUSH2 0xB34 JUMPI RETURNDATASIZE PUSH1 0x0 DUP1 RETURNDATACOPY RETURNDATASIZE PUSH1 0x0 REVERT JUMPDEST POP POP POP POP POP POP POP POP POP POP POP JUMP JUMPDEST PUSH1 0x0 DUP1 PUSH1 0x0 DUP4 GT PUSH2 0xB8A JUMPI PUSH1 0x40 MLOAD PUSH3 0x461BCD PUSH1 0xE5 SHL DUP2 MSTORE PUSH1 0x20 PUSH1 0x4 DUP3 ADD MSTORE PUSH1 0x13 PUSH1 0x24 DUP3 ADD MSTORE PUSH19 0x474E583A20616D6F756E7420746F6F206C6F77 PUSH1 0x68 SHL PUSH1 0x44 DUP3 ADD MSTORE PUSH1 0x64 ADD PUSH2 0x4E7 JUMP JUMPDEST PUSH1 0x0 PUSH2 0xB95 PUSH1 0x2 SLOAD SWAP1 JUMP JUMPDEST DUP5 PUSH2 0xB9E PUSH2 0x385 JUMP JUMPDEST PUSH2 0xBA8 SWAP2 SWAP1 PUSH2 0x1BA5 JUMP JUMPDEST PUSH2 0xBB2 SWAP2 SWAP1 PUSH2 0x1BC4 JUMP JUMPDEST SWAP1 POP PUSH1 0x0 PUSH2 0xBBF PUSH1 0x2 SLOAD SWAP1 JUMP JUMPDEST DUP6 PUSH2 0xBC8 PUSH2 0x1164 JUMP JUMPDEST PUSH2 0xBD2 SWAP2 SWAP1 PUSH2 0x1BA5 JUMP JUMPDEST PUSH2 0xBDC SWAP2 SWAP1 PUSH2 0x1BC4 JUMP JUMPDEST SWAP1 POP PUSH2 0xBE8 CALLER DUP7 PUSH2 0x16F0 JUMP JUMPDEST PUSH1 0x5 SLOAD PUSH1 0x40 MLOAD PUSH4 0xA9059CBB PUSH1 0xE0 SHL DUP2 MSTORE CALLER PUSH1 0x4 DUP3 ADD MSTORE PUSH1 0x24 DUP2 ADD DUP4 SWAP1 MSTORE PUSH1 0x1 PUSH1 0x1 PUSH1 0xA0 SHL SUB SWAP1 SWAP2 AND SWAP1 PUSH4 0xA9059CBB SWAP1 PUSH1 0x44 ADD PUSH1 0x20 PUSH1 0x40 MLOAD DUP1 DUP4 SUB DUP2 PUSH1 0x0 DUP8 GAS CALL ISZERO DUP1 ISZERO PUSH2 0xC39 JUMPI RETURNDATASIZE PUSH1 0x0 DUP1 RETURNDATACOPY RETURNDATASIZE PUSH1 0x0 REVERT JUMPDEST POP POP POP POP PUSH1 0x40 MLOAD RETURNDATASIZE PUSH1 0x1F NOT PUSH1 0x1F DUP3 ADD AND DUP3 ADD DUP1 PUSH1 0x40 MSTORE POP DUP2 ADD SWAP1 PUSH2 0xC5D SWAP2 SWAP1 PUSH2 0x1B38 JUMP JUMPDEST POP PUSH1 0x6 SLOAD PUSH1 0x40 MLOAD PUSH4 0xA9059CBB PUSH1 0xE0 SHL DUP2 MSTORE CALLER PUSH1 0x4 DUP3 ADD MSTORE PUSH1 0x24 DUP2 ADD DUP5 SWAP1 MSTORE PUSH1 0x1 PUSH1 0x1 PUSH1 0xA0 SHL SUB SWAP1 SWAP2 AND SWAP1 PUSH4 0xA9059CBB SWAP1 PUSH1 0x44 ADD PUSH1 0x20 PUSH1 0x40 MLOAD DUP1 DUP4 SUB DUP2 PUSH1 0x0 DUP8 GAS CALL ISZERO DUP1 ISZERO PUSH2 0xCAF JUMPI RETURNDATASIZE PUSH1 0x0 DUP1 RETURNDATACOPY RETURNDATASIZE PUSH1 0x0 REVERT JUMPDEST POP POP POP POP PUSH1 0x40 MLOAD RETURNDATASIZE PUSH1 0x1F NOT PUSH1 0x1F DUP3 ADD AND DUP3 ADD DUP1 PUSH1 0x40 MSTORE POP DUP2 ADD SWAP1 PUSH2 0xCD3 SWAP2 SWAP1 PUSH2 0x1B38 JUMP JUMPDEST POP PUSH1 0x40 MLOAD DUP6 DUP2 MSTORE CALLER SWAP1 ADDRESS SWAP1 PUSH32 0x4C789F733846D11909D875447C5F26D8E24E49339027D125EDA4A5BF512DA509 SWAP1 PUSH1 0x20 ADD PUSH1 0x40 MLOAD DUP1 SWAP2 SUB SWAP1 LOG3 SWAP1 SWAP5 SWAP1 SWAP4 POP SWAP2 POP POP JUMP JUMPDEST PUSH1 0x0 PUSH2 0xD1F PUSH2 0x1164 JUMP JUMPDEST PUSH2 0xE67 JUMPI PUSH1 0x5 SLOAD PUSH1 0x40 MLOAD PUSH4 0x23B872DD PUSH1 0xE0 SHL DUP2 MSTORE PUSH1 0x1 PUSH1 0x1 PUSH1 0xA0 SHL SUB SWAP1 SWAP2 AND SWAP1 PUSH4 0x23B872DD SWAP1 PUSH2 0xD57 SWAP1 CALLER SWAP1 ADDRESS SWAP1 DUP9 SWAP1 PUSH1 0x4 ADD PUSH2 0x1B14 JUMP JUMPDEST PUSH1 0x20 PUSH1 0x40 MLOAD DUP1 DUP4 SUB DUP2 PUSH1 0x0 DUP8 GAS CALL ISZERO DUP1 ISZERO PUSH2 0xD76 JUMPI RETURNDATASIZE PUSH1 0x0 DUP1 RETURNDATACOPY RETURNDATASIZE PUSH1 0x0 REVERT JUMPDEST POP POP POP POP PUSH1 0x40 MLOAD RETURNDATASIZE PUSH1 0x1F NOT PUSH1 0x1F DUP3 ADD AND DUP3 ADD DUP1 PUSH1 0x40 MSTORE POP DUP2 ADD SWAP1 PUSH2 0xD9A SWAP2 SWAP1 PUSH2 0x1B38 JUMP JUMPDEST POP PUSH1 0x6 SLOAD PUSH1 0x40 MLOAD PUSH4 0x23B872DD PUSH1 0xE0 SHL DUP2 MSTORE PUSH1 0x1 PUSH1 0x1 PUSH1 0xA0 SHL SUB SWAP1 SWAP2 AND SWAP1 PUSH4 0x23B872DD SWAP1 PUSH2 0xDCF SWAP1 CALLER SWAP1 ADDRESS SWAP1 DUP8 SWAP1 PUSH1 0x4 ADD PUSH2 0x1B14 JUMP JUMPDEST PUSH1 0x20 PUSH1 0x40 MLOAD DUP1 DUP4 SUB DUP2 PUSH1 0x0 DUP8 GAS CALL ISZERO DUP1 ISZERO PUSH2 0xDEE JUMPI RETURNDATASIZE PUSH1 0x0 DUP1 RETURNDATACOPY RETURNDATASIZE PUSH1 0x0 REVERT JUMPDEST POP POP POP POP PUSH1 0x40 MLOAD RETURNDATASIZE PUSH1 0x1F NOT PUSH1 0x1F DUP3 ADD AND DUP3 ADD DUP1 PUSH1 0x40 MSTORE POP DUP2 ADD SWAP1 PUSH2 0xE12 SWAP2 SWAP1 PUSH2 0x1B38 JUMP JUMPDEST POP PUSH1 0x0 PUSH2 0xE1D PUSH2 0x385 JUMP JUMPDEST SWAP1 POP PUSH2 0xE29 CALLER DUP3 PUSH2 0x1836 JUMP JUMPDEST PUSH1 0x40 MLOAD DUP2 DUP2 MSTORE ADDRESS SWAP1 CALLER SWAP1 PUSH32 0x4C789F733846D11909D875447C5F26D8E24E49339027D125EDA4A5BF512DA509 SWAP1 PUSH1 0x20 ADD PUSH1 0x40 MLOAD DUP1 SWAP2 SUB SWAP1 LOG3 SWAP1 POP PUSH2 0x49B JUMP JUMPDEST PUSH1 0x0 DUP3 PUSH2 0xE72 PUSH2 0x385 JUMP JUMPDEST PUSH2 0xE7C SWAP2 SWAP1 PUSH2 0x1BE6 JUMP JUMPDEST SWAP1 POP PUSH1 0x0 PUSH2 0xE88 PUSH2 0x1164 JUMP JUMPDEST SWAP1 POP PUSH1 0x0 DUP3 PUSH2 0xE97 DUP4 DUP8 PUSH2 0x1BA5 JUMP JUMPDEST PUSH2 0xEA1 SWAP2 SWAP1 PUSH2 0x1BC4 JUMP JUMPDEST SWAP1 POP DUP1 DUP6 LT ISZERO PUSH2 0xEF3 JUMPI PUSH1 0x40 MLOAD PUSH3 0x461BCD PUSH1 0xE5 SHL DUP2 MSTORE PUSH1 0x20 PUSH1 0x4 DUP3 ADD MSTORE PUSH1 0x1E PUSH1 0x24 DUP3 ADD MSTORE PUSH32 0x474E583A20696E73756666696369656E7420746F6B656E20616D6F756E740000 PUSH1 0x44 DUP3 ADD MSTORE PUSH1 0x64 ADD PUSH2 0x4E7 JUMP JUMPDEST PUSH1 0x5 SLOAD PUSH1 0x40 MLOAD PUSH4 0x23B872DD PUSH1 0xE0 SHL DUP2 MSTORE PUSH1 0x1 PUSH1 0x1 PUSH1 0xA0 SHL SUB SWAP1 SWAP2 AND SWAP1 PUSH4 0x23B872DD SWAP1 PUSH2 0xF27 SWAP1 CALLER SWAP1 ADDRESS SWAP1 DUP12 SWAP1 PUSH1 0x4 ADD PUSH2 0x1B14 JUMP JUMPDEST PUSH1 0x20 PUSH1 0x40 MLOAD DUP1 DUP4 SUB DUP2 PUSH1 0x0 DUP8 GAS CALL ISZERO DUP1 ISZERO PUSH2 0xF46 JUMPI RETURNDATASIZE PUSH1 0x0 DUP1 RETURNDATACOPY RETURNDATASIZE PUSH1 0x0 REVERT JUMPDEST POP POP POP POP PUSH1 0x40 MLOAD RETURNDATASIZE PUSH1 0x1F NOT PUSH1 0x1F DUP3 ADD AND DUP3 ADD DUP1 PUSH1 0x40 MSTORE POP DUP2 ADD SWAP1 PUSH2 0xF6A SWAP2 SWAP1 PUSH2 0x1B38 JUMP JUMPDEST POP PUSH1 0x6 SLOAD PUSH1 0x40 MLOAD PUSH4 0x23B872DD PUSH1 0xE0 SHL DUP2 MSTORE PUSH1 0x1 PUSH1 0x1 PUSH1 0xA0 SHL SUB SWAP1 SWAP2 AND SWAP1 PUSH4 0x23B872DD SWAP1 PUSH2 0xF9F SWAP1 CALLER SWAP1 ADDRESS SWAP1 DUP11 SWAP1 PUSH1 0x4 ADD PUSH2 0x1B14 JUMP JUMPDEST PUSH1 0x20 PUSH1 0x40 MLOAD DUP1 DUP4 SUB DUP2 PUSH1 0x0 DUP8 GAS CALL ISZERO DUP1 ISZERO PUSH2 0xFBE JUMPI RETURNDATASIZE PUSH1 0x0 DUP1 RETURNDATACOPY RETURNDATASIZE PUSH1 0x0 REVERT JUMPDEST POP POP POP POP PUSH1 0x40 MLOAD RETURNDATASIZE PUSH1 0x1F NOT PUSH1 0x1F DUP3 ADD AND DUP3 ADD DUP1 PUSH1 0x40 MSTORE POP DUP2 ADD SWAP1 PUSH2 0xFE2 SWAP2 SWAP1 PUSH2 0x1B38 JUMP JUMPDEST POP PUSH1 0x0 DUP4 DUP7 PUSH2 0xFF0 PUSH1 0x2 SLOAD SWAP1 JUMP JUMPDEST PUSH2 0xFFA SWAP2 SWAP1 PUSH2 0x1BA5 JUMP JUMPDEST PUSH2 0x1004 SWAP2 SWAP1 PUSH2 0x1BC4 JUMP JUMPDEST SWAP1 POP PUSH2 0x1010 CALLER DUP3 PUSH2 0x1836 JUMP JUMPDEST PUSH1 0x40 MLOAD DUP7 DUP2 MSTORE ADDRESS SWAP1 CALLER SWAP1 PUSH32 0x4C789F733846D11909D875447C5F26D8E24E49339027D125EDA4A5BF512DA509 SWAP1 PUSH1 0x20 ADD PUSH1 0x40 MLOAD DUP1 SWAP2 SUB SWAP1 LOG3 SWAP4 POP PUSH2 0x49B SWAP3 POP POP POP JUMP JUMPDEST CALLER PUSH1 0x0 SWAP1 DUP2 MSTORE PUSH1 0x1 PUSH1 0x20 SWAP1 DUP2 MSTORE PUSH1 0x40 DUP1 DUP4 KECCAK256 PUSH1 0x1 PUSH1 0x1 PUSH1 0xA0 SHL SUB DUP7 AND DUP5 MSTORE SWAP1 SWAP2 MSTORE DUP2 KECCAK256 SLOAD DUP3 DUP2 LT ISZERO PUSH2 0x10D4 JUMPI PUSH1 0x40 MLOAD PUSH3 0x461BCD PUSH1 0xE5 SHL DUP2 MSTORE PUSH1 0x20 PUSH1 0x4 DUP3 ADD MSTORE PUSH1 0x25 PUSH1 0x24 DUP3 ADD MSTORE PUSH32 0x45524332303A2064656372656173656420616C6C6F77616E63652062656C6F77 PUSH1 0x44 DUP3 ADD MSTORE PUSH5 0x207A65726F PUSH1 0xD8 SHL PUSH1 0x64 DUP3 ADD MSTORE PUSH1 0x84 ADD PUSH2 0x4E7 JUMP JUMPDEST PUSH2 0x10E1 CALLER DUP6 DUP6 DUP5 SUB PUSH2 0x1195 JUMP JUMPDEST POP PUSH1 0x1 SWAP4 SWAP3 POP POP POP JUMP JUMPDEST PUSH1 0x0 PUSH2 0x497 CALLER DUP5 DUP5 PUSH2 0x135D JUMP JUMPDEST PUSH1 0x0 DUP1 DUP3 GT PUSH2 0x1141 JUMPI PUSH1 0x40 MLOAD PUSH3 0x461BCD PUSH1 0xE5 SHL DUP2 MSTORE PUSH1 0x20 PUSH1 0x4 DUP3 ADD MSTORE PUSH1 0x15 PUSH1 0x24 DUP3 ADD MSTORE PUSH21 0x23A72C1D103A37B7903332BB9023A72C2A37B5B2B7 PUSH1 0x59 SHL PUSH1 0x44 DUP3 ADD MSTORE PUSH1 0x64 ADD PUSH2 0x4E7 JUMP JUMPDEST PUSH1 0x0 PUSH2 0x114B PUSH2 0x1164 JUMP JUMPDEST SWAP1 POP PUSH1 0x0 PUSH2 0x1157 PUSH2 0x385 JUMP JUMPDEST SWAP1 POP PUSH2 0x513 DUP5 DUP4 DUP4 PUSH2 0x12BA JUMP JUMPDEST PUSH1 0x5 SLOAD PUSH1 0x40 MLOAD PUSH4 0x70A08231 PUSH1 0xE0 SHL DUP2 MSTORE ADDRESS PUSH1 0x4 DUP3 ADD MSTORE PUSH1 0x0 SWAP2 PUSH1 0x1 PUSH1 0x1 PUSH1 0xA0 SHL SUB AND SWAP1 PUSH4 0x70A08231 SWAP1 PUSH1 0x24 ADD PUSH2 0x3B2 JUMP JUMPDEST PUSH1 0x1 PUSH1 0x1 PUSH1 0xA0 SHL SUB DUP4 AND PUSH2 0x11F7 JUMPI PUSH1 0x40 MLOAD PUSH3 0x461BCD PUSH1 0xE5 SHL DUP2 MSTORE PUSH1 0x20 PUSH1 0x4 DUP3 ADD MSTORE PUSH1 0x24 DUP1 DUP3 ADD MSTORE PUSH32 0x45524332303A20617070726F76652066726F6D20746865207A65726F20616464 PUSH1 0x44 DUP3 ADD MSTORE PUSH4 0x72657373 PUSH1 0xE0 SHL PUSH1 0x64 DUP3 ADD MSTORE PUSH1 0x84 ADD PUSH2 0x4E7 JUMP JUMPDEST PUSH1 0x1 PUSH1 0x1 PUSH1 0xA0 SHL SUB DUP3 AND PUSH2 0x1258 JUMPI PUSH1 0x40 MLOAD PUSH3 0x461BCD PUSH1 0xE5 SHL DUP2 MSTORE PUSH1 0x20 PUSH1 0x4 DUP3 ADD MSTORE PUSH1 0x22 PUSH1 0x24 DUP3 ADD MSTORE PUSH32 0x45524332303A20617070726F766520746F20746865207A65726F206164647265 PUSH1 0x44 DUP3 ADD MSTORE PUSH2 0x7373 PUSH1 0xF0 SHL PUSH1 0x64 DUP3 ADD MSTORE PUSH1 0x84 ADD PUSH2 0x4E7 JUMP JUMPDEST PUSH1 0x1 PUSH1 0x1 PUSH1 0xA0 SHL SUB DUP4 DUP2 AND PUSH1 0x0 DUP2 DUP2 MSTORE PUSH1 0x1 PUSH1 0x20 SWAP1 DUP2 MSTORE PUSH1 0x40 DUP1 DUP4 KECCAK256 SWAP5 DUP8 AND DUP1 DUP5 MSTORE SWAP5 DUP3 MSTORE SWAP2 DUP3 SWAP1 KECCAK256 DUP6 SWAP1 SSTORE SWAP1 MLOAD DUP5 DUP2 MSTORE PUSH32 0x8C5BE1E5EBEC7D5BD14F71427D1E84F3DD0314C0F7B2291E5B200AC8C7C3B925 SWAP2 ADD JUMPDEST PUSH1 0x40 MLOAD DUP1 SWAP2 SUB SWAP1 LOG3 POP POP POP JUMP JUMPDEST PUSH1 0x0 DUP1 DUP4 GT DUP1 ISZERO PUSH2 0x12CB JUMPI POP PUSH1 0x0 DUP3 GT JUMPDEST PUSH2 0x130F JUMPI PUSH1 0x40 MLOAD PUSH3 0x461BCD PUSH1 0xE5 SHL DUP2 MSTORE PUSH1 0x20 PUSH1 0x4 DUP3 ADD MSTORE PUSH1 0x15 PUSH1 0x24 DUP3 ADD MSTORE PUSH21 0x474E583A20696E76616C6964207265736572766573 PUSH1 0x58 SHL PUSH1 0x44 DUP3 ADD MSTORE PUSH1 0x64 ADD PUSH2 0x4E7 JUMP JUMPDEST PUSH1 0x0 PUSH2 0x131D DUP6 PUSH2 0x3E3 PUSH2 0x1BA5 JUMP JUMPDEST SWAP1 POP PUSH1 0x0 PUSH2 0x132B DUP5 DUP4 PUSH2 0x1BA5 JUMP JUMPDEST SWAP1 POP PUSH1 0x0 DUP3 PUSH2 0x133C DUP8 PUSH2 0x3E8 PUSH2 0x1BA5 JUMP JUMPDEST PUSH2 0x1346 SWAP2 SWAP1 PUSH2 0x1B70 JUMP JUMPDEST SWAP1 POP PUSH2 0x1352 DUP2 DUP4 PUSH2 0x1BC4 JUMP JUMPDEST SWAP8 SWAP7 POP POP POP POP POP POP POP JUMP JUMPDEST PUSH1 0x1 PUSH1 0x1 PUSH1 0xA0 SHL SUB DUP4 AND PUSH2 0x13C1 JUMPI PUSH1 0x40 MLOAD PUSH3 0x461BCD PUSH1 0xE5 SHL DUP2 MSTORE PUSH1 0x20 PUSH1 0x4 DUP3 ADD MSTORE PUSH1 0x25 PUSH1 0x24 DUP3 ADD MSTORE PUSH32 0x45524332303A207472616E736665722066726F6D20746865207A65726F206164 PUSH1 0x44 DUP3 ADD MSTORE PUSH5 0x6472657373 PUSH1 0xD8 SHL PUSH1 0x64 DUP3 ADD MSTORE PUSH1 0x84 ADD PUSH2 0x4E7 JUMP JUMPDEST PUSH1 0x1 PUSH1 0x1 PUSH1 0xA0 SHL SUB DUP3 AND PUSH2 0x1423 JUMPI PUSH1 0x40 MLOAD PUSH3 0x461BCD PUSH1 0xE5 SHL DUP2 MSTORE PUSH1 0x20 PUSH1 0x4 DUP3 ADD MSTORE PUSH1 0x23 PUSH1 0x24 DUP3 ADD MSTORE PUSH32 0x45524332303A207472616E7366657220746F20746865207A65726F2061646472 PUSH1 0x44 DUP3 ADD MSTORE PUSH3 0x657373 PUSH1 0xE8 SHL PUSH1 0x64 DUP3 ADD MSTORE PUSH1 0x84 ADD PUSH2 0x4E7 JUMP JUMPDEST PUSH1 0x1 PUSH1 0x1 PUSH1 0xA0 SHL SUB DUP4 AND PUSH1 0x0 SWAP1 DUP2 MSTORE PUSH1 0x20 DUP2 SWAP1 MSTORE PUSH1 0x40 SWAP1 KECCAK256 SLOAD DUP2 DUP2 LT ISZERO PUSH2 0x149B JUMPI PUSH1 0x40 MLOAD PUSH3 0x461BCD PUSH1 0xE5 SHL DUP2 MSTORE PUSH1 0x20 PUSH1 0x4 DUP3 ADD MSTORE PUSH1 0x26 PUSH1 0x24 DUP3 ADD MSTORE PUSH32 0x45524332303A207472616E7366657220616D6F756E7420657863656564732062 PUSH1 0x44 DUP3 ADD MSTORE PUSH6 0x616C616E6365 PUSH1 0xD0 SHL PUSH1 0x64 DUP3 ADD MSTORE PUSH1 0x84 ADD PUSH2 0x4E7 JUMP JUMPDEST PUSH1 0x1 PUSH1 0x1 PUSH1 0xA0 SHL SUB DUP1 DUP6 AND PUSH1 0x0 SWAP1 DUP2 MSTORE PUSH1 0x20 DUP2 SWAP1 MSTORE PUSH1 0x40 DUP1 DUP3 KECCAK256 DUP6 DUP6 SUB SWAP1 SSTORE SWAP2 DUP6 AND DUP2 MSTORE SWAP1 DUP2 KECCAK256 DUP1 SLOAD DUP5 SWAP3 SWAP1 PUSH2 0x14D2 SWAP1 DUP5 SWAP1 PUSH2 0x1B70 JUMP JUMPDEST SWAP3 POP POP DUP2 SWAP1 SSTORE POP DUP3 PUSH1 0x1 PUSH1 0x1 PUSH1 0xA0 SHL SUB AND DUP5 PUSH1 0x1 PUSH1 0x1 PUSH1 0xA0 SHL SUB AND PUSH32 0xDDF252AD1BE2C89B69C2B068FC378DAA952BA7F163C4A11628F55A4DF523B3EF DUP5 PUSH1 0x40 MLOAD PUSH2 0x151E SWAP2 DUP2 MSTORE PUSH1 0x20 ADD SWAP1 JUMP JUMPDEST PUSH1 0x40 MLOAD DUP1 SWAP2 SUB SWAP1 LOG3 PUSH2 0x94C JUMP JUMPDEST PUSH1 0x0 DUP1 PUSH2 0x1536 PUSH2 0x1164 JUMP JUMPDEST SWAP1 POP PUSH1 0x0 PUSH2 0x1542 PUSH2 0x385 JUMP JUMPDEST SWAP1 POP PUSH1 0x0 PUSH2 0x155A DUP7 PUSH2 0x1554 DUP2 DUP6 PUSH2 0x1BE6 JUMP JUMPDEST DUP6 PUSH2 0x12BA JUMP JUMPDEST SWAP1 POP DUP7 DUP2 GT PUSH2 0x15A4 JUMPI PUSH1 0x40 MLOAD PUSH3 0x461BCD PUSH1 0xE5 SHL DUP2 MSTORE PUSH1 0x20 PUSH1 0x4 DUP3 ADD MSTORE PUSH1 0x16 PUSH1 0x24 DUP3 ADD MSTORE PUSH22 0x11D3960E881B5A5B951BDAD95B9CC81B9BDD081B595D PUSH1 0x52 SHL PUSH1 0x44 DUP3 ADD MSTORE PUSH1 0x64 ADD PUSH2 0x4E7 JUMP JUMPDEST PUSH1 0x5 SLOAD PUSH1 0x40 MLOAD PUSH4 0x23B872DD PUSH1 0xE0 SHL DUP2 MSTORE PUSH1 0x1 PUSH1 0x1 PUSH1 0xA0 SHL SUB SWAP1 SWAP2 AND SWAP1 PUSH4 0x23B872DD SWAP1 PUSH2 0x15D8 SWAP1 CALLER SWAP1 ADDRESS SWAP1 DUP12 SWAP1 PUSH1 0x4 ADD PUSH2 0x1B14 JUMP JUMPDEST PUSH1 0x20 PUSH1 0x40 MLOAD DUP1 DUP4 SUB DUP2 PUSH1 0x0 DUP8 GAS CALL ISZERO DUP1 ISZERO PUSH2 0x15F7 JUMPI RETURNDATASIZE PUSH1 0x0 DUP1 RETURNDATACOPY RETURNDATASIZE PUSH1 0x0 REVERT JUMPDEST POP POP POP POP PUSH1 0x40 MLOAD RETURNDATASIZE PUSH1 0x1F NOT PUSH1 0x1F DUP3 ADD AND DUP3 ADD DUP1 PUSH1 0x40 MSTORE POP DUP2 ADD SWAP1 PUSH2 0x161B SWAP2 SWAP1 PUSH2 0x1B38 JUMP JUMPDEST POP PUSH1 0x6 SLOAD PUSH1 0x40 MLOAD PUSH4 0xA9059CBB PUSH1 0xE0 SHL DUP2 MSTORE PUSH1 0x1 PUSH1 0x1 PUSH1 0xA0 SHL SUB DUP8 DUP2 AND PUSH1 0x4 DUP4 ADD MSTORE PUSH1 0x24 DUP3 ADD DUP5 SWAP1 MSTORE SWAP1 SWAP2 AND SWAP1 PUSH4 0xA9059CBB SWAP1 PUSH1 0x44 ADD PUSH1 0x20 PUSH1 0x40 MLOAD DUP1 DUP4 SUB DUP2 PUSH1 0x0 DUP8 GAS CALL ISZERO DUP1 ISZERO PUSH2 0x166F JUMPI RETURNDATASIZE PUSH1 0x0 DUP1 RETURNDATACOPY RETURNDATASIZE PUSH1 0x0 REVERT JUMPDEST POP POP POP POP PUSH1 0x40 MLOAD RETURNDATASIZE PUSH1 0x1F NOT PUSH1 0x1F DUP3 ADD AND DUP3 ADD DUP1 PUSH1 0x40 MSTORE POP DUP2 ADD SWAP1 PUSH2 0x1693 SWAP2 SWAP1 PUSH2 0x1B38 JUMP JUMPDEST POP PUSH1 0x5 SLOAD PUSH1 0x40 DUP1 MLOAD PUSH1 0x1 PUSH1 0x1 PUSH1 0xA0 SHL SUB SWAP3 DUP4 AND DUP2 MSTORE PUSH1 0x20 DUP2 ADD DUP10 SWAP1 MSTORE SWAP1 DUP2 ADD DUP4 SWAP1 MSTORE SWAP1 DUP7 AND SWAP1 PUSH32 0x4B5796113F074EBF8F11D5BCDEB6349B2FBE47ABED78419CDCDBBC15C6FCF845 SWAP1 PUSH1 0x60 ADD PUSH1 0x40 MLOAD DUP1 SWAP2 SUB SWAP1 LOG2 SWAP7 SWAP6 POP POP POP POP POP POP JUMP JUMPDEST PUSH1 0x1 PUSH1 0x1 PUSH1 0xA0 SHL SUB DUP3 AND PUSH2 0x1750 JUMPI PUSH1 0x40 MLOAD PUSH3 0x461BCD PUSH1 0xE5 SHL DUP2 MSTORE PUSH1 0x20 PUSH1 0x4 DUP3 ADD MSTORE PUSH1 0x21 PUSH1 0x24 DUP3 ADD MSTORE PUSH32 0x45524332303A206275726E2066726F6D20746865207A65726F20616464726573 PUSH1 0x44 DUP3 ADD MSTORE PUSH1 0x73 PUSH1 0xF8 SHL PUSH1 0x64 DUP3 ADD MSTORE PUSH1 0x84 ADD PUSH2 0x4E7 JUMP JUMPDEST PUSH1 0x1 PUSH1 0x1 PUSH1 0xA0 SHL SUB DUP3 AND PUSH1 0x0 SWAP1 DUP2 MSTORE PUSH1 0x20 DUP2 SWAP1 MSTORE PUSH1 0x40 SWAP1 KECCAK256 SLOAD DUP2 DUP2 LT ISZERO PUSH2 0x17C4 JUMPI PUSH1 0x40 MLOAD PUSH3 0x461BCD PUSH1 0xE5 SHL DUP2 MSTORE PUSH1 0x20 PUSH1 0x4 DUP3 ADD MSTORE PUSH1 0x22 PUSH1 0x24 DUP3 ADD MSTORE PUSH32 0x45524332303A206275726E20616D6F756E7420657863656564732062616C616E PUSH1 0x44 DUP3 ADD MSTORE PUSH2 0x6365 PUSH1 0xF0 SHL PUSH1 0x64 DUP3 ADD MSTORE PUSH1 0x84 ADD PUSH2 0x4E7 JUMP JUMPDEST PUSH1 0x1 PUSH1 0x1 PUSH1 0xA0 SHL SUB DUP4 AND PUSH1 0x0 SWAP1 DUP2 MSTORE PUSH1 0x20 DUP2 SWAP1 MSTORE PUSH1 0x40 DUP2 KECCAK256 DUP4 DUP4 SUB SWAP1 SSTORE PUSH1 0x2 DUP1 SLOAD DUP5 SWAP3 SWAP1 PUSH2 0x17F3 SWAP1 DUP5 SWAP1 PUSH2 0x1BE6 JUMP JUMPDEST SWAP1 SWAP2 SSTORE POP POP PUSH1 0x40 MLOAD DUP3 DUP2 MSTORE PUSH1 0x0 SWAP1 PUSH1 0x1 PUSH1 0x1 PUSH1 0xA0 SHL SUB DUP6 AND SWAP1 PUSH32 0xDDF252AD1BE2C89B69C2B068FC378DAA952BA7F163C4A11628F55A4DF523B3EF SWAP1 PUSH1 0x20 ADD PUSH2 0x12AD JUMP JUMPDEST PUSH1 0x1 PUSH1 0x1 PUSH1 0xA0 SHL SUB DUP3 AND PUSH2 0x188C JUMPI PUSH1 0x40 MLOAD PUSH3 0x461BCD PUSH1 0xE5 SHL DUP2 MSTORE PUSH1 0x20 PUSH1 0x4 DUP3 ADD MSTORE PUSH1 0x1F PUSH1 0x24 DUP3 ADD MSTORE PUSH32 0x45524332303A206D696E7420746F20746865207A65726F206164647265737300 PUSH1 0x44 DUP3 ADD MSTORE PUSH1 0x64 ADD PUSH2 0x4E7 JUMP JUMPDEST DUP1 PUSH1 0x2 PUSH1 0x0 DUP3 DUP3 SLOAD PUSH2 0x189E SWAP2 SWAP1 PUSH2 0x1B70 JUMP JUMPDEST SWAP1 SWAP2 SSTORE POP POP PUSH1 0x1 PUSH1 0x1 PUSH1 0xA0 SHL SUB DUP3 AND PUSH1 0x0 SWAP1 DUP2 MSTORE PUSH1 0x20 DUP2 SWAP1 MSTORE PUSH1 0x40 DUP2 KECCAK256 DUP1 SLOAD DUP4 SWAP3 SWAP1 PUSH2 0x18CB SWAP1 DUP5 SWAP1 PUSH2 0x1B70 JUMP JUMPDEST SWAP1 SWAP2 SSTORE POP POP PUSH1 0x40 MLOAD DUP2 DUP2 MSTORE PUSH1 0x1 PUSH1 0x1 PUSH1 0xA0 SHL SUB DUP4 AND SWAP1 PUSH1 0x0 SWAP1 PUSH32 0xDDF252AD1BE2C89B69C2B068FC378DAA952BA7F163C4A11628F55A4DF523B3EF SWAP1 PUSH1 0x20 ADD PUSH1 0x40 MLOAD DUP1 SWAP2 SUB SWAP1 LOG3 POP POP JUMP JUMPDEST PUSH1 0x0 PUSH1 0x20 DUP1 DUP4 MSTORE DUP4 MLOAD DUP1 DUP3 DUP6 ADD MSTORE PUSH1 0x0 JUMPDEST DUP2 DUP2 LT ISZERO PUSH2 0x1942 JUMPI DUP6 DUP2 ADD DUP4 ADD MLOAD DUP6 DUP3 ADD PUSH1 0x40 ADD MSTORE DUP3 ADD PUSH2 0x1926 JUMP JUMPDEST DUP2 DUP2 GT ISZERO PUSH2 0x1954 JUMPI PUSH1 0x0 PUSH1 0x40 DUP4 DUP8 ADD ADD MSTORE JUMPDEST POP PUSH1 0x1F ADD PUSH1 0x1F NOT AND SWAP3 SWAP1 SWAP3 ADD PUSH1 0x40 ADD SWAP4 SWAP3 POP POP POP JUMP JUMPDEST PUSH1 0x1 PUSH1 0x1 PUSH1 0xA0 SHL SUB DUP2 AND DUP2 EQ PUSH2 0x197F JUMPI PUSH1 0x0 DUP1 REVERT JUMPDEST POP JUMP JUMPDEST PUSH1 0x0 DUP1 PUSH1 0x40 DUP4 DUP6 SUB SLT ISZERO PUSH2 0x1995 JUMPI PUSH1 0x0 DUP1 REVERT JUMPDEST DUP3 CALLDATALOAD PUSH2 0x19A0 DUP2 PUSH2 0x196A JUMP JUMPDEST SWAP5 PUSH1 0x20 SWAP4 SWAP1 SWAP4 ADD CALLDATALOAD SWAP4 POP POP POP JUMP JUMPDEST PUSH1 0x0 PUSH1 0x20 DUP3 DUP5 SUB SLT ISZERO PUSH2 0x19C0 JUMPI PUSH1 0x0 DUP1 REVERT JUMPDEST POP CALLDATALOAD SWAP2 SWAP1 POP JUMP JUMPDEST PUSH1 0x0 DUP1 PUSH1 0x0 PUSH1 0x60 DUP5 DUP7 SUB SLT ISZERO PUSH2 0x19DC JUMPI PUSH1 0x0 DUP1 REVERT JUMPDEST DUP4 CALLDATALOAD PUSH2 0x19E7 DUP2 PUSH2 0x196A JUMP JUMPDEST SWAP3 POP PUSH1 0x20 DUP5 ADD CALLDATALOAD PUSH2 0x19F7 DUP2 PUSH2 0x196A JUMP JUMPDEST SWAP3 SWAP6 SWAP3 SWAP5 POP POP POP PUSH1 0x40 SWAP2 SWAP1 SWAP2 ADD CALLDATALOAD SWAP1 JUMP JUMPDEST PUSH1 0x0 DUP1 PUSH1 0x40 DUP4 DUP6 SUB SLT ISZERO PUSH2 0x1A1B JUMPI PUSH1 0x0 DUP1 REVERT JUMPDEST POP POP DUP1 CALLDATALOAD SWAP3 PUSH1 0x20 SWAP1 SWAP2 ADD CALLDATALOAD SWAP2 POP JUMP JUMPDEST PUSH1 0x0 PUSH1 0x20 DUP3 DUP5 SUB SLT ISZERO PUSH2 0x1A3C JUMPI PUSH1 0x0 DUP1 REVERT JUMPDEST DUP2 CALLDATALOAD PUSH2 0x1A47 DUP2 PUSH2 0x196A JUMP JUMPDEST SWAP4 SWAP3 POP POP POP JUMP JUMPDEST PUSH1 0x0 DUP1 PUSH1 0x0 PUSH1 0x60 DUP5 DUP7 SUB SLT ISZERO PUSH2 0x1A63 JUMPI PUSH1 0x0 DUP1 REVERT JUMPDEST DUP4 CALLDATALOAD SWAP3 POP PUSH1 0x20 DUP5 ADD CALLDATALOAD SWAP2 POP PUSH1 0x40 DUP5 ADD CALLDATALOAD PUSH2 0x1A7C DUP2 PUSH2 0x196A JUMP JUMPDEST DUP1 SWAP2 POP POP SWAP3 POP SWAP3 POP SWAP3 JUMP JUMPDEST PUSH1 0x0 DUP1 PUSH1 0x40 DUP4 DUP6 SUB SLT ISZERO PUSH2 0x1A9A JUMPI PUSH1 0x0 DUP1 REVERT JUMPDEST DUP3 CALLDATALOAD PUSH2 0x1AA5 DUP2 PUSH2 0x196A JUMP JUMPDEST SWAP2 POP PUSH1 0x20 DUP4 ADD CALLDATALOAD PUSH2 0x1AB5 DUP2 PUSH2 0x196A JUMP JUMPDEST DUP1 SWAP2 POP POP SWAP3 POP SWAP3 SWAP1 POP JUMP JUMPDEST PUSH1 0x0 PUSH1 0x20 DUP3 DUP5 SUB SLT ISZERO PUSH2 0x1AD2 JUMPI PUSH1 0x0 DUP1 REVERT JUMPDEST POP MLOAD SWAP2 SWAP1 POP JUMP JUMPDEST PUSH1 0x1 DUP2 DUP2 SHR SWAP1 DUP3 AND DUP1 PUSH2 0x1AED JUMPI PUSH1 0x7F DUP3 AND SWAP2 POP JUMPDEST PUSH1 0x20 DUP3 LT DUP2 EQ ISZERO PUSH2 0x1B0E JUMPI PUSH4 0x4E487B71 PUSH1 0xE0 SHL PUSH1 0x0 MSTORE PUSH1 0x22 PUSH1 0x4 MSTORE PUSH1 0x24 PUSH1 0x0 REVERT JUMPDEST POP SWAP2 SWAP1 POP JUMP JUMPDEST PUSH1 0x1 PUSH1 0x1 PUSH1 0xA0 SHL SUB SWAP4 DUP5 AND DUP2 MSTORE SWAP2 SWAP1 SWAP3 AND PUSH1 0x20 DUP3 ADD MSTORE PUSH1 0x40 DUP2 ADD SWAP2 SWAP1 SWAP2 MSTORE PUSH1 0x60 ADD SWAP1 JUMP JUMPDEST PUSH1 0x0 PUSH1 0x20 DUP3 DUP5 SUB SLT ISZERO PUSH2 0x1B4A JUMPI PUSH1 0x0 DUP1 REVERT JUMPDEST DUP2 MLOAD DUP1 ISZERO ISZERO DUP2 EQ PUSH2 0x1A47 JUMPI PUSH1 0x0 DUP1 REVERT JUMPDEST PUSH4 0x4E487B71 PUSH1 0xE0 SHL PUSH1 0x0 MSTORE PUSH1 0x11 PUSH1 0x4 MSTORE PUSH1 0x24 PUSH1 0x0 REVERT JUMPDEST PUSH1 0x0 DUP3 NOT DUP3 GT ISZERO PUSH2 0x1B83 JUMPI PUSH2 0x1B83 PUSH2 0x1B5A JUMP JUMPDEST POP ADD SWAP1 JUMP JUMPDEST PUSH1 0x0 PUSH1 0x20 DUP3 DUP5 SUB SLT ISZERO PUSH2 0x1B9A JUMPI PUSH1 0x0 DUP1 REVERT JUMPDEST DUP2 MLOAD PUSH2 0x1A47 DUP2 PUSH2 0x196A JUMP JUMPDEST PUSH1 0x0 DUP2 PUSH1 0x0 NOT DIV DUP4 GT DUP3 ISZERO ISZERO AND ISZERO PUSH2 0x1BBF JUMPI PUSH2 0x1BBF PUSH2 0x1B5A JUMP JUMPDEST POP MUL SWAP1 JUMP JUMPDEST PUSH1 0x0 DUP3 PUSH2 0x1BE1 JUMPI PUSH4 0x4E487B71 PUSH1 0xE0 SHL PUSH1 0x0 MSTORE PUSH1 0x12 PUSH1 0x4 MSTORE PUSH1 0x24 PUSH1 0x0 REVERT JUMPDEST POP DIV SWAP1 JUMP JUMPDEST PUSH1 0x0 DUP3 DUP3 LT ISZERO PUSH2 0x1BF8 JUMPI PUSH2 0x1BF8 PUSH2 0x1B5A JUMP JUMPDEST POP SUB SWAP1 JUMP INVALID LOG2 PUSH5 0x6970667358 0x22 SLT KECCAK256 0xE7 0x4D SSTORE MSIZE RETURNDATACOPY 0x1F 0xBA DUP16 SWAP7 PUSH25 0xDCA366C6ABCC921B3F79771CFB01071F8D53AD6A17F864736F PUSH13 0x634300080B0033000000000000 ",
  "sha1": "0bb986d682233316fdfc3ddeefe184095e2911a9",
  "source": "// SPDX-License-Identifier: MIT\n\npragma solidity ^0.8.7;\n\nimport {GNXToken} from \"../tokens/GNXToken.sol\";\nimport {GNXNative} from \"../tokens/GNXNative.sol\";\nimport {GNXPoolFactory} from \"./GNXPoolFactory.sol\";\nimport {ERC20} from \"@openzeppelin/contracts/token/ERC20/ERC20.sol\";\n\n  /** \n    * @title GNXPool - Liquidity trading pools for wrapped GNXToken and GNXNative\n    * @author Bailey de Villiers (https://github.com/itchysnake)\n    * @dev Liquidity pool derived from Uniswap-V1. To be used specifically with\n    * GNX Pool Factory, GNX Tokens, and GNX Native.\n    */\n\ninterface IGNXPool {\n    function tokenReserve() external view returns (uint256);\n    function nativeReserve() external view returns (uint256);\n    function addLiquidity(uint256 tokenDeposit, uint256 nativeDeposit) external returns (uint256);\n    function removeLiquidity(uint256 amount) external returns (uint256, uint256);\n    function nativeToToken(uint256 nativeSold) external returns (uint256);\n    function tokenToNative(uint256 tokensSold) external returns (uint256);\n    function buyNative(uint256 minNative, uint256 tokensSold) external returns (uint256);\n    function buyTokens(uint256 minTokens, uint256 nativeSold) external returns (uint256);\n    function tokenSwap(uint256 tokensSold, uint256 minTokens, address GNXTokenAddress) external;\n    function _tokenSwap(uint256 minTokens, uint256 nativeSold, address recipient) external;\n    \n    event liquidityChange(address indexed from, address indexed to, uint256 amount);\n    event Trade(address indexed trader, address output, uint256 inputAmount, uint256 outputAmount);\n}\n\ncontract GNXPool is ERC20, IGNXPool {\n    \n    GNXToken public token;                  // Wrapped GNXToken\n    GNXNative public native;                // GNXNative token\n    address public factory;                 // Parent GNX pool factory\n\n    // Contract is an ERC20 to provide LP rewards\n    constructor(address _GNXToken, address _GNXNative) ERC20(\"GENEX-V1\",\"GNXV1\") {\n        require(_GNXToken != address(0), \"GNX: invalid token address\");\n        \n        token = GNXToken(_GNXToken);\n        native = GNXNative(_GNXNative);\n        factory = msg.sender;\n    }\n\n  /** View function for GNXToken reserve\n    * \n    * @notice View function for GNXTokens stored in this contract\n    *\n    * @return Amount of GNXNative held in this contract\n    */\n    function tokenReserve() public override(IGNXPool) view returns(uint256){\n        return token.balanceOf(address(this));\n    }\n    \n  /** View function for GNXNative reserve\n    * \n    * @notice View function for GNXNative stored in this contract.\n    *\n    * @return Amount of GNXNative held in this contract.\n    */\n    function nativeReserve() public override(IGNXPool) view returns(uint256){\n        return native.balanceOf(address(this));\n    }\n\n  /** Ability to add liquidity to the pool (mints LP tokens)\n    * \n    * @notice Add liquidity of GNXToken and GNXNative to this trading pool. Users\n    * are rewarded in LP which can be exchanged for liquidity and trading accrued\n    * fees.\n    *\n    * @notice Liquidity of both tokens added must be equal. Technically only\n    * one param required but having two params for both tokens makes it clear\n    * that both are required to add liquidity.\n    *\n    * @dev ERC20 LP tokens are minted equal to the GNXNative deposit made.\n    * Required deposit amount must be calculated in front-end. Equal deposit\n    * is enforced by contract to prevent price manipulation.\n    *\n    * @param tokenDeposit Quantity of GNXToken deposited.\n    * @param nativeDeposit Quantity of GNXNative deposited.\n    *\n    * @return Quantity of LP tokens minted to msg.sender.\n    */\n    function addLiquidity(uint256 tokenDeposit, uint256 nativeDeposit) public override(IGNXPool) returns (uint256) {\n        \n        // Iniital liquidity add\n        if (tokenReserve() == 0) {\n            // Pulling GNXToken\n            token.transferFrom(msg.sender, address(this), tokenDeposit);\n            // Pulling GNXNative\n            native.transferFrom(msg.sender, address(this), nativeDeposit);\n            \n            // Sends LPs in exchange for initial deposit\n            uint256 _nativeReserve = nativeReserve();\n            _mint(msg.sender, _nativeReserve);\n\n            emit liquidityChange(msg.sender, address(this), _nativeReserve);\n            \n            return _nativeReserve;\n            \n        // Normal liquidity add\n        } else {\n        \n            uint256 _nativeReserve = nativeReserve() - nativeDeposit;\n            uint256 _tokenReserve = tokenReserve();\n            uint256 tokenOutput = (nativeDeposit * _tokenReserve) / _nativeReserve;\n            \n            require(nativeDeposit >= tokenOutput, \"GNX: insufficient token amount\"); // Maintains pool price\n            \n            // Pulls GNXToken\n            token.transferFrom(msg.sender, address(this), tokenDeposit);\n            // Pulls GNXNative\n            native.transferFrom(msg.sender, address(this), nativeDeposit);\n            \n            // Mints LP tokens\n            uint256 liquidityTokens = (totalSupply() * nativeDeposit) / _nativeReserve;\n            _mint(msg.sender, liquidityTokens);\n\n            emit liquidityChange(msg.sender, address(this), nativeDeposit);\n\n            return liquidityTokens;\n        }\n    }\n    \n  /** Exchange LPs for equal return of GNXToken and GNXNative.\n    * \n    * @notice Burn LP tokens in exchange for GNXNative and GNXTokens based \n    * on current reserves, and amount being submitted. Portion of accrued fees\n    * are also returned in the respective token. Potentially results in\n    * impermenant loss.\n    *\n    * @param amount Quantity of LP tokens submitted for exchange.\n    *\n    * @return Tuple of GNXNative output, and GNXToken output.\n    */\n    function removeLiquidity(uint256 amount) public override(IGNXPool) returns (uint256, uint256) {\n        require(amount > 0, \"GNX: amount too low\");\n        \n        uint256 nativeOutput = (nativeReserve() * amount) / totalSupply();\n        uint256 tokenOutput = (tokenReserve() * amount) / totalSupply();\n        \n        // returns an equal amount of GNXNative and GNXToken and burns LP tokens\n        _burn(msg.sender, amount);\n        token.transfer(msg.sender, tokenOutput);\n        native.transfer(msg.sender, nativeOutput);\n        \n        emit liquidityChange(address(this), msg.sender, amount);\n        \n        return (nativeOutput, tokenOutput);\n    }\n        \n  /** Private pricing function\n    * \n    * @notice Private function used to determine \"price,\" or output amount\n    * of one of the two assets traded in the pool. Fee is set to 0.5% and \n    * is accrued in the token used as input.\n    *\n    * @dev Calculation is derived from uniswap's constant product AMM, x*y=k.\n    *\n    * @param inputAmount Quantity of tokens sent, or intend to be sent by user.\n    * @param inputReserve Quantity of output tokens stored in contract.\n    * @param outputReserve Quantity of output tokens stored in contract.\n    *\n    * @return Output token amount.\n    */\n    function getAmount(\n        uint256 inputAmount,\n        uint256 inputReserve,\n        uint256 outputReserve\n    ) private pure returns(uint256) {\n        require(inputReserve > 0 && outputReserve > 0, \"GNX: invalid reserves\");\n        \n        // 0.5% fee\n        uint256 inputAmountWithFee = inputAmount * 995;\n        uint256 numerator = inputAmountWithFee * outputReserve;\n        uint256 denominator = (inputReserve*1000) + inputAmountWithFee;\n        \n        // Returns (outputAmount, totalFee)\n        return (numerator/denominator);\n    }\n    \n  /** Lookup function\n    * \n    * @notice Lookup function to call current price for selling GNXNative to\n    * receive GNXToken.\n    *\n    * @param nativeSold Quantity of GNXNative to be sold.\n    *\n    * @return Output GNXToken amount.\n    */\n    function nativeToToken(uint256 nativeSold) public view override(IGNXPool) returns (uint256) {\n        require(nativeSold > 0, \"GNX: too few GNXNative\");\n        uint256 _tokenReserve = tokenReserve();\n        uint256 _nativeReserve = nativeReserve();\n        return getAmount(nativeSold, _nativeReserve, _tokenReserve);\n    }\n   \n  /** Lookup function\n    * \n    * @notice Lookup function to call current price for selling GNXToken to\n    * receive GNXNative.\n    *\n    * @param tokensSold Quantity of GNXTokens to be sold.\n    *\n    * @return Output GNXNative amount.\n    */\n    function tokenToNative(uint256 tokensSold) public view override(IGNXPool) returns (uint256) {\n        require(tokensSold > 0, \"GNX: too few GNXToken\");\n        uint256 _tokenReserve = tokenReserve();\n        uint256 _nativeReserve = nativeReserve();\n        return getAmount(tokensSold, _tokenReserve, _nativeReserve);\n    }\n    \n  /** Private buy function\n    * \n    * @notice Private buy function which allows additional flexibility for\n    * public buyToken functions (or variations thereof).\n    *\n    * @dev Used to provide additional flexibility in the two other methods of\n    * tokens purchase. First method is generic purchase (buyTokens), while second\n    * is reserved for _tokenSwap allowing two tokens to be exchanged from pool\n    * to pool.\n    *\n    * @param minTokens Minimum number of tokens expected from output. Enforced\n    * in front-end to prevent price spoofing with bots.\n    * @param nativeSold Quantity of GNXNative sold.\n    * @param recipient Recipient of the output quantity of GNXTokens.\n    *\n    * @return Quantity of GNXTokens output.\n    */\n    function _buyTokens(\n        uint256 minTokens,\n        uint256 nativeSold,\n        address recipient\n    ) private returns (uint256) {\n\n        uint256 _tokenReserve = tokenReserve();\n        uint256 _nativeReserve = nativeReserve();\n        \n        // Calculate tokenOutput for GNXNative user sent\n        uint256 tokenOutput = getAmount(\n            nativeSold, \n            _nativeReserve - nativeSold, \n            _tokenReserve\n        );\n        \n        require(tokenOutput > minTokens, \"GNX: minTokens not met\");\n\n        // Pull GNXNative\n        token.transferFrom(msg.sender, address(this), nativeSold);\n        // Send GNXToken\n        native.transfer(recipient ,tokenOutput);\n        \n        emit Trade(recipient, address(token), nativeSold, tokenOutput);\n        \n        return tokenOutput;\n    }\n     \n  /** Generic purchase function for GNXNative\n    * \n    * @notice General purchase function where GNXTokens are sold in exchange \n    * for GNXNative. Requires stating a minimum expected return to prevent\n    * price spoofing.\n    *\n    * @dev This function is akin to tokenSwawp. This is the base function\n    * for switching from GNXTokens to GNXNative.\n    *\n    * @param minNative Minimum expected output quantity of GNXNative.\n    * @param tokensSold Quantity of GNXTokens sold.\n    *\n    * @return Quantity of GNXNative output.\n    */\n    function buyNative(uint256 minNative, uint256 tokensSold) public override(IGNXPool) returns (uint256) {\n        require(token.balanceOf(msg.sender) >= tokensSold, \"GNX: not enough GNXTokens\");\n\n        uint256 _tokenReserve = tokenReserve();\n        uint256 _nativeReserve = nativeReserve();\n        \n        uint256 nativeOutput = getAmount(tokensSold, _tokenReserve, _nativeReserve);\n        \n        require(nativeOutput > minNative, \"GNX: minNative not met\");\n\n        // Pull GNXToken\n        token.transferFrom(msg.sender, address(this), tokensSold);\n        // Send GNXNative\n        native.transfer(msg.sender, nativeOutput);\n        \n        emit Trade(msg.sender, address(native), tokensSold, nativeOutput);\n        \n        return nativeOutput;\n    }\n    \n  /** Generic purchase function for GNXTokens.\n    * \n    * @notice General purchase function for exchanging GNXNative for GNXTokens.\n    *\n    *\n    * @param minTokens Minimum number of tokens expected from output.\n    * @param nativeSold Quantity of GNXNative sold.\n    *\n    * @return Quantity of GNXTokens output.\n    */\n    function buyTokens(uint256 minTokens, uint256 nativeSold) public override(IGNXPool) returns (uint256) {\n    \n        // Checks if user has enough GNXNative to sell\n        require(native.balanceOf(msg.sender) >= nativeSold,\"GNX: not enough GNXNative\");\n        \n        uint256 tokenOutput = _buyTokens(minTokens, nativeSold, msg.sender);\n        \n        return tokenOutput;\n    }\n    \n  /** helper function specifically for tokenSwap --> only meant for other exchange contracts\n    * ONLY FOR EXCHANGE CONTRACTS\n    *\n    * Helper function specifically for _tokenSwap / tokenSwap.\n    *\n    * @notice Facilitates token to token swaps. Allows the circumvension of \n    * double fees when changing from one GNXToken to another GNXToken. \n    *\n    * @dev Used for GNXToken to GNXToken swaps. Done through exchanging GNXTokens\n    * in an intial swap to GNXToken which is then swapped to another GNXToken.\n    *\n    * @dev Should not be interacted with directly by user calls. This exists\n    * for other contracts to facilitate token swaps.\n    *\n    * @param minTokens Minimum number of tokens expected from output.\n    * @param nativeSold Quantity of GNXNative sold.\n    */\n    function _tokenSwap(uint256 minTokens, uint256 nativeSold, address recipient) public override {\n        _buyTokens(minTokens, nativeSold, recipient);\n    }\n    \n    // Token to Token (GNXToken --> GNXToken) routed through Factory\n    function tokenSwap(\n        uint256 tokensSold,\n        uint256 minTokens,\n        address GNXTokenAddress\n    ) public override(IGNXPool) {\n    \n        // Checks if there is an exchange for the other token contract listed on this factory\n        address poolAddress = GNXPoolFactory(factory).getPool(GNXTokenAddress);\n        \n        require(\n            poolAddress != address(this) && poolAddress != address(0),\n            \"GNX: invalid pool\");\n        \n        // Swaps token for GNXNative\n        uint256 _tokenReserve = tokenReserve();\n        uint256 _nativeReserve = nativeReserve();\n        uint256 nativeOutput = getAmount(tokensSold, _tokenReserve, _nativeReserve);\n\n        // Pulls GNXToken\n        token.transferFrom(msg.sender, address(this), tokensSold);\n        \n        // Uses nativeOutput for purchase function, fee only charged once\n        \n        // Sends GNXNative to other pool for swap\n        IGNXPool(poolAddress)._tokenSwap(\n            minTokens,\n            nativeOutput,\n            msg.sender);\n    }\n}",
  "sourcePath": "contracts/dex/GNXPool.sol",
  "type": "contract"
}